:1000000000000320D1010000D13E0000893E000025
:10001000893E0000893E0000893E0000893E0000C4
:10002000893E0000893E0000893E0000D13E00006C
:10003000D13E0000893E0000F9550000FD5500004A
:10004000D13E0000D13E0000D13E0000D13E000074
:10005000D13E0000D13E0000D13E0000D13E000064
:10006000D13E0000D13E0000D13E0000D13E000054
:10007000D13E0000D13E0000D13E0000D13E000044
:10008000D13E0000D13E0000D13E0000D13E000034
:10009000D13E0000D13E0000D13E0000D13E000024
:1000A000092C0000152C0000D13E0000D13E0000BC
:1000B000D13E0000D13E0000D13E000005620000AC
:1000C000D13E0000D13E0000D13E0000D13E0000F4
:1000D000D13E0000D13E0000D13E0000D13E0000E4
:1000E000D13E0000D13E0000D13E0000D13E0000D4
:1000F000D13E0000D13E0000D13E0000D13E0000C4
:10010000D13E0000D13E0000D13E0000D13E0000B3
:10011000D13E000081440000D13E0000D13E0000ED
:10012000D13E0000D13E0000D13E0000D13E000093
:10013000D13E0000D13E0000D13E0000D13E000083
:10014000AD530000D13E0000D13E0000D13E000082
:10015000D13E0000D13E0000D13E0000D13E000063
:10016000D13E0000D13E0000212C0000D13E000015
:10017000D13E0000D13E0000D13E0000D13E000043
:10018000D13E000071250000D13E0000D13E0000AC
:10019000D13E0000D13E0000D13E0000D13E000023
:1001A000D13E0000D13E0000D13E0000D13E000013
:1001B000D13E0000D13E0000D13E0000D13E000003
:1001C000D13E0000D13E0000D13E0000D13E0000F3
:1001D0005C4B4CF2205210B51A804DF628121A8052
:1001E00000BF00BF03F078FE574B4FF030621A603B
:1001F000564A9A60564ADA60564B4FF470021A60BB
:10020000554B564A1A60564B1A78110703D51A787F
:1002100042F008021A70534B5349AA221A70534AEB
:10022000534B8B4204D252F8040F43F8040BF8E707
:10023000504B514900228B4202D243F8042BFAE77B
:100240004E494F4A002352F8230041F8230001335E
:10025000742BF8D14B4B4C4A802103F8011B93427D
:10026000FBD14A4B454A1A60494B8A221A70A3F5C2
:10027000805324225A70A0221A709A799207FCD5D2
:100280009A79D406FCD4434A937903F00C03082BE3
:10029000FAD1414B60221A7002331A78802AFCD1BD
:1002A0003C4B01221A715D225A719A799006FCD555
:1002B0009979384A4906FBD5384B394919600021EC
:1002C000596020231370937903F00C030C2BFAD19F
:1002D000344B354A1A60354A354C136813F4807331
:1002E00003D123604FF4A8531360324B324A1A6093
:1002F00000225A60072243F8042C304AC3F80C2D20
:1003000062B603F02DFF2368DA0705D52C4803F009
:10031000B7FE2C4B2C4A1A602C4B1B785B0609D578
:10032000284C294B22689A4204D1254803F0A8FEA4
:100330000023236006F0E0FC03F0D4FD05F030FB61
:10034000FEE700BF0E20054030800440823F0400DD
:100350000100002B88ED00E0002008E0030000858C
:1003600002D0074000E00740EC19FF1FD8830000CF
:10037000300FFF1FEC19FF1FA020FF1F000AFF1FF7
:100380000000000000E400E064E400E008ED00E0AC
:10039000005006400040064001E007404480044011
:1003A0000000060204800440C010070010D0034083
:1003B00014D0034014E000E01FBF02000000202022
:1003C000CF179C5F1CE00340A5C3945A00F0074080
:1003D000FFFFFFFFFFFFFFFFFFFFFFFFFFFFFFFF2D
:1003E000FFFFFFFFFFFFFFFFFFFFFFFFFFFFFFFF1D
:1003F000FFFFFFFFFFFFFFFFFFFFFFFFFFFFFFFF0D
:10040000FFFFFFFFFFFFFFFFFFFFFFFFDEF9FFFF23
:1004100010B5054C237833B9044B13B10448AFF33E
:1004200000800123237010BDEC19FF1F00000000A5
:10043000D4830000084B10B51BB108490848AFF33E
:1004400000800848036803B910BD074B002BFBD0A0
:10045000BDE81040184700BF00000000F019FF1F62
:10046000D4830000EC19FF1F00000000002070473B
:10047000084604F003BF00BF04F030BF10B50446C7
:10048000406A074A0368DB68934207D104F026FFFD
:10049000A06A0368BDE81040DB6818479847F7E793
:1004A00079040000A0F11C00E8E700BF70B50C4B18
:1004B0001B78DB0704460D4606D4A06A036829466C
:1004C0001B68BDE870401847406A064A03681B680D
:1004D000934203D1084604F0D1FEEEE79847ECE7DB
:1004E0007C1FFF1F71040000A0F11C00DEE700BFAD
:1004F0002DE9F843154B1B78DB0707460D461446DC
:1005000012D5DFF84C900E4601EB0208B0450BD037
:100510007A6A16F8011B13681B684B45084612D10E
:1005200004F0ACFEB045F3D126464CB10026B86AC3
:1005300015F8011B03681B689847013C0644F6D177
:100540003046BDE8F88310469847DFE77C1FFF1F61
:1005500071040000A0F11C00CAE700BF03682DE988
:10056000F047074608469D690E4606F0C9FE1B4B3C
:100570009D42044627D11A4B1B78DB0712D5DFF8C2
:100580006490354606EB0008A8450BD07A6A15F84A
:10059000011B13681B684B45084611D104F06EFE21
:1005A000A845F3D10025ACB1B86A16F8011B036861
:1005B0001B689847013C0544F6D12846BDE8F08702
:1005C00010469847E0E70246314638462B46BDE8DC
:1005D000F04718472046BDE8F08700BFF10400004F
:1005E0007C1FFF1F71040000F0B5044600220223A7
:1005F000C3624E4E84F8202000230968A660636120
:100600004FF0FF360A23E660E36327261F23666365
:100610006364222621232664E36438264FF41653AC
:1006200091B04348A664636614268023A665E366FA
:100630002C26152300EB060E3E4F2665236124264B
:10064000029323233C4D2060C4F81CE03B48A76183
:10065000A766A6630496236305934FF00F0E384BED
:10066000227106274FF4E13684F85420E5652066B0
:10067000CDF80CE0069707938DF82C200191089394
:1006800009930A930C930D950E900F9607290AD89B
:10069000DFE801F004261029293910100222012375
:1006A00009928DF82C30204601A900F065FA204609
:1006B00011B0F0BD232127220A2322271F26382527
:1006C00021200291039214214FF4165205932C23FA
:1006D00006970796089509900C910F920A93E2E706
:1006E00002230993DFE723270A2622251F20212141
:1006F00014224FF416530297059606950790099118
:100700000C920F93CFE72A2214230A2722261F25B3
:100710004020212102924FF4165203930C93059727
:1007200006960795089009910F92BCE7B40FFF1F3A
:100730004877000000442C47F410FF1FDC10FF1F17
:10074000F1D8FFFF38B54FF4FA70144D144C03F094
:10075000B5FC2221134804F00DFD284604F0ECFFFF
:100760000A2000F02FF9204601F0AAF901212046C5
:1007700000F01AFE20469FED0C0A00F05BFD2046BB
:10078000B3EE040A00F0BCFC0F21084804F0F2FCB0
:100790002846BDE8384004F0CFBF00BFF410FF1F6B
:1007A000081AFF1F8477000000000000A8770000EF
:1007B00008B54FF4FA6003F081FC0A21034804F005
:1007C000D9FC0348BDE8084004F0B6BFB877000084
:1007D000F410FF1F2DE9F04182B002A9404E4148BC
:1007E000414F022341F8043DFFF7FEFE00210120A6
:1007F00006F124020B46707232613172F16037608B
:10080000344600E0226942F82310727A34480133FA
:100810009A42F7DCDFF8DC80D8F800200AB959E00A
:100820001A465369002BFBD15661304D304B2C4892
:10083000336000247461B480F480B472347634621E
:10084000F46101F02BFB012105F1240369722246BA
:1008500020462F602C72EC602B61294600E00B696A
:1008600043F822006B7A214C01329342F7DCD8F82E
:100870000020204B0AB930E01A465369002BFBD107
:1008800055611D481D4B286200240222012728388B
:100890002A762B606C61AC80EC80AC72EC61AC624F
:1008A000EC6285F8307001F047FE154B18461C725B
:1008B0001E605D605C72DC6000F026F9114B18462A
:1008C000DC601E605D601F725F7200F01DF902B097
:1008D000BDE8F081C8F80000A7E71C60D1E700BFC1
:1008E000781AFF1F081AFF1F3C770000C01AFF1F6D
:1008F000E47D0000801FFF1FE81AFF1F347F000007
:10090000A01AFF1FB01AFF1F154B1A782AB3B0F5B3
:10091000761F4FF0000270B51A709ABF4FF405733E
:1009200043434FF0FF330446184605F041F80646AE
:100930007CB10C4D00F50573002280210132A242EA
:1009400043F8101C43F80C1C43F8085C03F50573CE
:10095000F4D1054B30461E6070BD034B18687047DC
:10096000340FFF1FA6552C470C1BFF1FC029F0B4E6
:1009700028BFC02172B6114B114E1860002333609E
:100980007360B360F36033617361012799B15D09EE
:1009900003F01F0456F8252007FA04F4013322431C
:1009A0008B4246F82520F2D10023437001338B425D
:1009B00000F50570F9D162B6F0BC7047141BFF1F3B
:1009C000F41AFF1F10B50446FFF79EFF20B1214621
:1009D000BDE81040FFF7CABF10BD00BF70B472B6CB
:1009E000204B186820B9586828B30433202200E04F
:1009F00000221D4E3478B0FA80F54FF00041E940F6
:100A00000134E4B220EA01003470186062B64FF499
:100A10000571531B01FB03F2144B1549186802F5CD
:100A200080436C330122C2540A78A242184438BF72
:100A30000C7070BC7047986820B9D86828B10C3326
:100A40006022D6E708334022D3E7186920B95869F5
:100A500028B11433A022CCE710338022C9E762B654
:100A6000E7E700BFF41AFF1F101BFF1F141BFF1F37
:100A7000111BFF1F427872B60378012B03D9013B8B
:100A8000037062B6704770B456110A4D0A4C55F89F
:100A900026102378D2434FF0004002F01F0220FAC4
:100AA00002F21143013B45F82610237062B670BC78
:100AB000704700BFF41AFF1F101BFF1FC369B3B1BB
:100AC00030B401E0DB688BB1187A9042FAD15868F3
:100AD0005C7A006A50F82450002DF3D140F82410BD
:100AE000087801300870DB68002BEDD130BC70470E
:100AF000037E8B4206D9036A002253F8210043F893
:100B000021207047002070474368427A1B7E9A423A
:100B10000ED872B60168CA690AB90AE01A46D368E3
:100B2000002BFBD1D060426801230B72137262B6B6
:100B30007047C861F7E700BF38B50E4AC36C9342EF
:100B400016D00D4604460121D8B245B903F0B0FADB
:100B5000294694F84C00BDE8384003F0A3BA03F0EE
:100B6000A7FA94F84C000121BDE8384003F09ABA86
:100B700038BD00BFF1D8FFFF4B6870B503610C466C
:100B800006460FCC06F12C050FC50FCC0FC50FCCB8
:100B90000FC594E8070085E8070096F83400314C4B
:100BA000002103F085FA96F83800012103F080FA5D
:100BB00096F83800002103F075FA96F83C00012100
:100BC00003F076FA96F83C00002103F06BFAB06D62
:100BD000A0420AD0C0B2012103F06AFAB06DA0426F
:100BE00003D0C0B2012103F05DFA706C1D4BF16DB2
:100BF000326E71629842B26210D0C0B2012103F02D
:100C000057FA012196F8440003F04CFA0A2003F049
:100C100055FA002196F8440003F044FA306C114B69
:100C2000984210D0C0B2012103F042FA002196F898
:100C3000400003F037FA0A2003F040FA012196F849
:100C4000400003F02FFAB06C064B984203D0C0B2BC
:100C5000002103F02DFA30460121BDE87040FFF776
:100C60006BBF00BFF1D8FFFF90F8392090F8380033
:100C7000101A704790F8383090F839209A4205D908
:100C80005A1C034480F83820187E70474FF0FF301C
:100C9000704700BF012070470020704770B50546BF
:100CA0000124AB68302083F83B0083F85E4083F872
:100CB0005D40A86803681B6816469847A8680368E3
:100CC00031461B6898472146A86801F001FE08B923
:100CD000204670BD05464421064804F04BFA2946DB
:100CE00000230A22044804F037FD034804F024FDE1
:100CF000002070BDC4770000F410FF1F836870B53A
:100D00003022012483F83B2083F85E4083F85D4065
:100D10000546806803680E461B6800219847A8684E
:100D2000036831461B6898472146A86801F0D0FD4A
:100D300008B9204670BD05463F21074804F01AFA5D
:100D4000294600230A22054804F006FD034804F062
:100D5000F3FC002070BD00BF0C780000F410FF1FF2
:100D60002DE9F041164605460F46FFF7C7FFF8B9D3
:100D700004462D21694804F0FDF9234639460A222C
:100D8000674804F0E9FC0621664804F0F3F92346BD
:100D90000A223146624804F0DFFC3221624804F046
:100DA000E9F95F4804F0C8FC4FF4FA70BDE8F0813F
:100DB000AB6830224FF0010883F83B2083F85E8057
:100DC00083F85D80A868036831461B6898474146F0
:100DD000A86801F07DFD0446002837D1434642460D
:100DE0001821A86801F0FEFD0446F0B92E214F48F5
:100DF00004F0C0F9234639460A22494804F0ACFC05
:100E00000621484804F0B6F923460A2231464448F0
:100E100004F0A2FC1421464804F0ACF9404804F068
:100E20008BFC4FF4C870BDE8F081A868414A0368A4
:100E30001B69934245D190F8393090F83800181A60
:100E4000002828DC4FF41670BDE8F0812E213748C9
:100E500004F090F9394600230A22314804F07CFC62
:100E60000621304804F086F9314600230A222C4836
:100E700004F072FC2421304804F07CF900230A229B
:100E80002146274804F068FC254804F055FC04F589
:100E90009670BDE8F081A868284A03685B699342B0
:100EA00036D190F8383090F839209A4233D95A1C0C
:100EB000034480F838201C7E2B7923B9A0B2BDE80A
:100EC000F0819847BCE727211D4804F053F93946C3
:100ED00000230A22124804F03FFC0621114804F0C6
:100EE00049F9314600230A220D4804F035FCA4B22A
:100EF0000D21144804F03EF9214600231022084831
:100F000004F02AFC064804F017FC2046BDE8F081F6
:100F100098470446D0E74FF0FF34CDE7FC78000057
:100F2000F410FF1F7C7800002C7900004C78000042
:100F3000AC780000690C000084780000750C00009B
:100F4000C4780000EC780000F8B50D46017904463D
:100F500016461F4661B929462046FFF7CFFE00B965
:100F6000F8BD3A4631462046BDE8F840FFF796BE48
:100F70002821104804F0FEF800230A2229460E48D2
:100F800004F0EAFB06210D4804F0F4F800230A22DD
:100F90003146094804F0E0FB0621094804F0EAF86C
:100FA00000230A223946044804F0D6FB024804F024
:100FB000C3FBD0E760790000F410FF1F7C780000CD
:100FC0008C790000037910B5044633B1122108482A
:100FD00004F0D0F8074804F0AFFB012320461A467E
:100FE0000021FFF7B1FF0A20BDE8104003F066B80A
:100FF00094790000F410FF1F30B52DED028BB5EE93
:10100000C00AF1EE10FA83B004460D4666D49FED97
:10101000358AB4EEC80AF1EE10FAD8BFB0EE408AB5
:1010200038EE400ADFED307AB5EEC00AF1EE10FA84
:10103000D8BFB1EE400AB4EEE70AF1EE10FA45DC93
:1010400078EE087AB6EE007AF5EEC07AF1EE10FA94
:10105000ACBF77EE877A77EEC77A2379FDEEE77A31
:10106000CDED017ABBB920469DF804304DB13C224C
:101070000121FFF769FFB0EE480A03B0BDEC028B17
:1010800030BD3B220121FFF75FFFB0EE480A03B0FD
:10109000BDEC028B30BD2121144804F06BF818EE32
:1010A000100A05F0F9FA41EC100B0121104804F088
:1010B0009BFB1E210F4804F05DF89DF904100C48BD
:1010C00004F08AFB0A4804F037FBCCE750210A48B9
:1010D00004F050F8064804F02FFBB1E79FED078AB3
:1010E0009EE700BF00003E420AD7233CFC79000087
:1010F000F410FF1F207A0000A87900000000000013
:1011000010B500210446FFF777FF20460121BDE816
:101110001040FFF771BF00BF30B52DED028BB3EE6D
:10112000088AB4EEC80AF1EE10FA83B004460D4600
:1011300008DC9FED398AB4EEC80AF1EE10FA58BF08
:10114000B0EE408A38EE400ADFED347AB5EEC00AE0
:10115000F1EE10FAD8BFB1EE400AB4EEE70AF1EEB4
:1011600010FA51DC78EE087AB6EE007AF5EEC07A25
:10117000F1EE10FAACBF77EE877A77EEC77A237973
:10118000FDEEE77ACDED017A6BB985B320469DF887
:10119000043042220021FFF7D7FEB0EE480A03B028
:1011A000BDEC028B30BD20211D4803F0E3FF294632
:1011B0001C4804F011FB0B211B4803F0DBFF18EE69
:1011C000100A05F069FA41EC100B0121154804F0F2
:1011D0000BFB1E21154803F0CDFF9DF904101148AB
:1011E00004F0FAFA0F4804F0A7FA002DCED12946F0
:1011F00020469DF804304122FFF7A6FEB0EE480AD3
:1012000003B0BDEC028B30BD4821094803F0B2FFAA
:10121000044804F091FAA5E700007EC20AD7233CF7
:10122000D87A0000F410FF1FFC7A0000207A00003A
:101230008C7A000010B501210446FFF76DFF2046AF
:101240000021BDE81040FFF767BF00BFF7EE007A4E
:10125000B4EEE70AF1EE10FA08B505DDB2EE0E0ABB
:10126000FFF7E8FF012008BDB5EEC00AF1EE10FA65
:1012700005D89FED070AFFF7DDFF012008BD9FEDB0
:10128000057ADFED037AE0EE077AB0EE670AE7E76A
:10129000000068C200009242037910B5044633B1E1
:1012A00025213F4803F066FF3E4804F045FA00213F
:1012B0002046FFF723FD032204212046FFF7EEFC22
:1012C000912205212046FFF7E9FC0822062120464D
:1012D000FFF7E4FC002207212046FFF7DFFC002295
:1012E00008212046FFF7DAFC82220B212046FFF777
:1012F000D5FC88220C212046FFF7D0FC00220D21CE
:101300002046FFF7CBFC80220E212046FFF7C6FCCB
:10131000842212212046FFF7C1FC88221321204697
:10132000FFF7BCFC402214212046FFF7B7FC8422C3
:101330001E212046FFF7B2FC01212046FFF7DEFC0C
:10134000082201212046FFF7A9FC002202212046A5
:10135000FFF7A4FC01227B212046FFF79FFC062219
:101360007C212046FFF79AFC0A2201212046FFF744
:1013700095FC00220A212046FFF790FC31224721EC
:101380002046FFF78BFC53227D212046FFF786FC89
:10139000204631231B220021BDE81040FFF7D4BDB9
:1013A000087B0000F410FF1F38B504460D46A1B1BC
:1013B00003295CD0022900F08A80012930D04A211B
:1013C000574803F0D7FE2946564804F005FA554819
:1013D00004F0B2F90024204638BD0121FFF78EFC4D
:1013E000402234212046FFF759FC40223621204676
:1013F000FFF754FC402237212046FFF74FFC4022E4
:1014000039212046FFF74AFC20462B463322012192
:10141000FFF79AFD2479002C51D10124204638BDD4
:10142000FFF76CFC102234212046FFF737FC4022E6
:1014300036212046FFF732FC102237212046FFF7E5
:101440002DFC402239212046FFF728FC2046294662
:1014500000233322FFF778FD2479002CDDD03021E2
:10146000314803F087FE2F4804F066F9B3E7012105
:10147000FFF744FC042234212046FFF70FFC4022F2
:1014800036212046FFF70AFC042237212046FFF7C9
:1014900005FC402239212046FFF700FC204650235E
:1014A00033220121FFF750FD2479002CB5D03821DB
:1014B0001E4803F05FFE1B4804F03EF98BE71A213B
:1014C0001B4803F057FE174804F036F983E7012163
:1014D000FFF714FC042234212046FFF7DFFB4022F3
:1014E00036212046FFF7DAFB042237212046FFF79A
:1014F000D5FB402239212046FFF7D0FB20460023B0
:1015000033220121FFF720FD2479002C85D02B21E7
:10151000084803F02FFE034804F00EF95BE700BF14
:10152000E87B0000F410FF1FB47B00004C7B000040
:10153000307B0000887B0000037910B5044633B18E
:101540001A21274803F016FE264804F0F5F8012377
:101550003D2200212046FFF7F7FC00233D22012118
:101560002046FFF7F1FC3123472201212046FFF7F7
:10157000EBFC4323332201212046FFF7E5FC012148
:101580002046FFF7BBFB102234212046FFF786FBE5
:10159000402236212046FFF781FB102237212046CA
:1015A000FFF77CFB402239212046FFF777FB002222
:1015B0003B212046FFF772FB00223C212046FFF72B
:1015C0006DFB0023194652222046FFF7BDFC204642
:1015D000C02351220021BDE81040FFF7B5BC00BF79
:1015E000347C0000F410FF1FF8B5D64B1F7804467A
:1015F0000D46002F00F0938000221A7001233C2238
:1016000000212046FFF7A0FC01212046FFF776FBD2
:10161000402210212046FFF741FB402211212046A5
:10162000FFF73CFB402212212046FFF737FB402208
:1016300013212046FFF732FB002319463F222046A4
:10164000FFF782FC01212046FFF758FB0022092109
:101650002046FFF723FB00220C212046FFF71EFB4C
:1016600000220D212046FFF719FB00220E21204603
:10167000FFF714FB00220F212046FFF70FFBA522E6
:1016800014212046FFF70AFB012D00F01D81022DD9
:1016900000F0BE81032D00F06181042D4FF00106A2
:1016A00049D101212046FFF729FB08220C212046C1
:1016B000FFF7F4FA10220D212046FFF7EFFA10226F
:1016C0000E212046FFF7EAFA08220F212046FFF7F5
:1016D000E5FA002E40F0BE8001212046FFF70EFB08
:1016E000324612212046FFF7D9FA3246132120460E
:1016F000FFF7D4FA324610212046FFF7CFFA3246E0
:1017000011212046FFF7CAFA2479002C3FD0492145
:101710008D4803F02FFD8D4804F00EF817E01646B3
:10172000002A7FF46BAF012913D0022932D003299C
:1017300056D0042DB5D04B21854803F01BFD29461A
:10174000824804F049F8814803F0F6FF002420465F
:10175000F8BDFFF7D3FA08220C212046FFF79EFAC6
:1017600008220D212046FFF799FA29462046FFF767
:10177000C5FA324610212046FFF790FA3246112171
:101780002046FFF78BFA2479002C40F039810124A0
:101790002046F8BD0121FFF7B1FA08220E212046AC
:1017A000FFF77CFA08220F212046FFF777FA012184
:1017B0002046FFF7A3FA324612212046FFF76EFAC1
:1017C000324613212046FFF769FA2479002CDED037
:1017D0003121604803F0CEFC5C4803F0ADFFB6E772
:1017E0000121FFF78BFA08220C212046FFF756FA59
:1017F00008220D212046FFF751FA08220E2120462B
:10180000FFF74CFA08220F212046FFF747FA012183
:101810002046FFF773FA324612212046FFF73EFAC0
:10182000324613212046FFF739FA3246102120466E
:10183000FFF734FA324611212046FFF72FFA2479B8
:10184000002CA4D04421444803F094FC3F4803F00A
:1018500073FF7CE7D6233F2200212046FFF774FB6D
:1018600001212046FFF74AFA002212212046FFF705
:1018700015FA002213212046FFF710FA002210214A
:101880002046FFF70BFA002211212046FFF706FA47
:101890003C23092201212046FFF756FB322002F0AB
:1018A0000DFC0023194641222046FFF74DFB002383
:1018B000194642222046FFF747FB002319464022E3
:1018C0002046FFF741FB1FE729462046FFF716FA9F
:1018D00008220C212046FFF7E1F908220D212046BD
:1018E000FFF7DCF9D6233F2200212046FFF72CFB2F
:1018F00029462046FFF702FA002210212046FFF772
:10190000CDF9002211212046FFF7C8F929463023DE
:1019100009222046FFF718FB322002F0CFFB0023FC
:10192000194641222046FFF70FFB002319464222A9
:101930002046FFF709FB0023194640222046FFF707
:1019400003FB20E7350FFF1F047D0000F410FF1F8D
:10195000507D0000887C0000BC7C000001212046F6
:10196000FFF7CCF908220C212046FFF797F908224F
:101970000D212046FFF792F908220E212046FFF79D
:101980008DF908220F212046FFF788F9D6233F2240
:1019900000212046FFF7D8FA01212046FFF7AEF9D3
:1019A000002212212046FFF779F900221321204658
:1019B000FFF774F9002210212046FFF76FF900228B
:1019C00011212046FFF76AF93C2309220121204614
:1019D000FFF7BAFA322002F071FB002319464122C8
:1019E0002046FFF7B1FA0023194642222046FFF7AE
:1019F000ABFA0023194640222046FFF7A5FA1EE75E
:101A00003721224803F0B6FB214803F095FE9EE6FD
:101A100001212046FFF772F908220E212046FFF728
:101A20003DF908220F212046FFF738F9D6233F223F
:101A300000212046FFF788FA01212046FFF75EF9D2
:101A4000002212212046FFF729F900221321204607
:101A5000FFF724F90C23092201212046FFF774FA2D
:101A6000322002F02BFB0023194641222046FFF7CB
:101A70006BFA0023194642222046FFF765FA00233D
:101A8000194640222046FFF75FFA9EE6507C000090
:101A9000F410FF1F037910B5044633B1292106481D
:101AA00003F068FB054803F047FE0122204611467B
:101AB000BDE81040FFF798BD9C7D0000F410FF1FAB
:101AC00010B504460A2002F0F9FAA06800F0A8FD5B
:101AD000052002F0F3FA207C012102F0E9FA01214D
:101AE000207C02F0DFFA322002F0E8FA0021207CAC
:101AF00002F0D8FA322002F0E1FA0121207C02F053
:101B0000D1FA322002F0DAFA2046FFF75BFA2046DB
:101B1000FFF7C2FB2046FFF70FFD2046FFF7BAFF95
:101B200020461B220021FFF71BF9237933B1132133
:101B3000034803F01FFB034803F0FEFD012010BD26
:101B4000C87D0000F410FF1F70B51668FEB1104B81
:101B50001D68002D06F104030BDD9FED0E7A0024B5
:101B6000F3EC017A013467EE877AA54243ED017AFE
:101B7000F6D1094B14461B68C6F81032CAB231467A
:101B8000FEF79CFF2068BDE87040FEF773BF70BD94
:101B90003C0FFF1F00000030381BFF1F10B504462C
:101BA00003F0ACFC204610BDF8B52E4B2E4A196848
:101BB00018792E4B096910701B682D4ADB0002EB67
:101BC0005303994236D22B492B4C2C4D0B6820687D
:101BD0002D7801330B6002EB800302EBC0007DBB6C
:101BE000274A284912680E6872B36EB3264F2568DB
:101BF0003C88B4EB550F19D8A10005EBD5750A4404
:101C000004EB650431443C800432043153F8084B42
:101C100053ED017A07EE104AF8EEE77AB8EEC77A8C
:101C20009842A2EC017AE1EC017AEFD8174B01223D
:101C30001A70F8BD104C2068134602EB8000CFE705
:101C4000134A01211160CBE7104B1B7803B9F8BD93
:101C50003021104803F08EFA0F48BDE8F84003F039
:101C60006BBD00BF1C1BFF1F1F800040440FFF1FE8
:101C70000002FF1F381BFF1F3C0FFF1F301BFF1F01
:101C8000241BFF1F2C1BFF1F2A1BFF1F281BFF1FCE
:101C900008E200E0EC7D0000F410FF1FF0B583B017
:101CA0000023009301930646FEF798FE0446FEF7D4
:101CB00095FE0546002C46D0002836D0294B01223F
:101CC0001A7072B6284B294A19881268914214DAA0
:101CD000002C35D026490A6842B162B62046FEF78C
:101CE000C9FE2846FEF7C6FE03B0F0BD21480C60D1
:101CF0001A80056062B603B0F0BD1D491D4A0F6829
:101D000010680C600021009715600190198062B680
:101D100033686A4630465B689847336830465B688C
:101D200001AA0121984703B0F0BD2046FEF7A2FEAC
:101D30000C4A114B157801221A604DB92C46C0E7A8
:101D400062B603B0F0BD0028F2D0FEF793FEEFE7D5
:101D50002E210A4803F00EFA0025094803F0ECFC96
:101D60002C46AEE7181BFF1F2A1BFF1F3C0FFF1F4F
:101D7000241BFF1F2C1BFF1F341BFF1F207E000096
:101D8000F410FF1F0E4A0F4B12681B680E49F0B487
:101D9000D200196091080D4F1F6189B240F20226EE
:101DA00004200024D9820625D9835242DE8098601F
:101DB0009C80DC609D839A619882F0BC704700BF74
:101DC000440FFF1F1C1BFF1FA0F002400002FF1F5B
:101DD000F8B5254C254F05460E462046012103F057
:101DE00027FB234B2349244A1868244B08601268B8
:101DF0001A60304600F010FB214B224E4FF48062F7
:101E000028461A60FFF7BEFF237903F1804303F5EC
:101E100004338C2200251D701A7003F0AFFA1A4BA0
:101E200022791A4930701A700B6822791848194CB7
:101E3000194E43F0124343F001030B60396853110C
:101E40009B0041F0104103F16043396003F56143A9
:101E500002F11007012102F01F0201FA02F244F818
:101E600027601A600560F8BD1C1BFF1F00F00240D0
:101E7000380FFF1F400FFF1F3C0FFF1F440FFF1FB6
:101E800014B00440301BFF1F1B80004080F0024054
:101E9000381BFF1F000AFF1FA91B00000121FFF7CD
:101EA00097BF00BF024A0349034804F08BBA00BF42
:101EB000300FFF1F9D1B00001C1BFF1F024A034920
:101EC000034804F07FBA00BF300FFF1F9D1B0000C6
:101ED0003C1BFF1F2DE9F84F5B4B5C4A1968DFF88C
:101EE0008C911B7909681370D9F80040584BE200B7
:101EF00003EB520291423CD304EBD4725210554989
:101F0000DFF86C81DFF86CC1534F0868D8F80060C7
:101F1000BCF800E03D8800286BD0002E51D0011D98
:101F200006F1040A002A01EB8E010AEB850A14DD92
:101F300008334FF0000BB1EC017AFAEC017ABDEEF8
:101F4000C77AFDEEE77A0BF1010B5A4503ED027AF1
:101F500043ED017A03F10803EDD196441544A4B290
:101F6000A6451FD2ACF800E0A5420FD23D80BDE8E7
:101F7000F88F3A4904EBD4720978521003EBC2038C
:101F80000029BCD0364901200860B8E7002430465B
:101F90003C80FEF76FFD334B1A68C8F800201C60C8
:101FA000BDE8F88F4FF0000AACF800A0FEF762FD24
:101FB0002D4B28491A68B9F800400A60C3F800A000
:101FC000D2E700F1040A002A0AEB8E0A0FDD08337B
:101FD0003146B346FAEC017A43F804BCFDEEE77AE9
:101FE00001318A4243ED027A03F10803F2D19644AB
:101FF000B5E7BEB1311D002A01EB850110DD0833C4
:1020000082468346F1EC017A43F808BCFDEEE77A9C
:102010000AF1010A524543ED017A03F10803F1D1B7
:1020200015449CE7002A0CDD083331460136B242E4
:1020300043F8081C43F8041C03F10803F6D1BDE87B
:10204000F88FBDE8F88F00BF5C1BFF1F1F800040AA
:102050000006FF1F541BFF1F4C1BFF1F481BFF1FC9
:1020600008E200E0581BFF1F441BFF1F440FFF1F27
:10207000501BFF1F4A1BFF1F2DE9F0410446FEF7CE
:10208000ADFC0646FEF7AAFC0546002E00F0C48013
:10209000002800F0B18000212046FEF729FD074608
:1020A000002800F0C380DFF8B081D0F80832D8F8FB
:1020B0000000834216D03C21604803F05BF8D7F85B
:1020C00008125F4803F088FB23215E4803F052F8B2
:1020D000D8F800105A4803F07FFB594803F02CFB56
:1020E000D8F80000002807F1040106F1040222DDFF
:1020F0009FED557ADFED556A00230CE0F4EE667A29
:10210000F1EE10FA03F1010398BFF0EE667A834214
:10211000E2EC017A0FD0F1EC017A67EE877AF4EE07
:10212000C77AF1EE10FAE9DDDFED477A0133834239
:10213000E2EC017AEFD172B6454B1868002860D006
:10214000444A1168002961D0DFF81CE119600023BE
:102150001660AEF8003062B6FEF78CFC2046002216
:102160003946FEF7ABFC3846FEF784FC01212046D9
:10217000FEF7BEFC064600285CD0374B18680028E6
:1021800006F1040105F1040222DD9FED2F7ADFED57
:102190002F6A00230CE0F4EE667AF1EE10FA03F1F8
:1021A000010398BFF0EE667A9842E2EC017A0FD014
:1021B000F1EC017A67EE877AF4EEC77AF1EE10FA65
:1021C000E9DDDFED217A01339842E2EC017AEFD1CB
:1021D00072B6224B186820B3214A1168C9B1214F49
:1021E0001960002315603B8062B6FEF743FC204671
:1021F00001223146FEF762FC3046BDE8F041FEF7B1
:1022000039BC194A1E60108062B6A7E7166062B634
:10221000A4E7156062B6EAE770B1BDE8F041FEF7E9
:1022200029BC104A1D60108062B6E0E73046FEF718
:1022300021FC9BE72846F0E7BDE8F081C87E00005E
:10224000F410FF1F087F00000000004F000000CFC7
:10225000541BFF1F441BFF1F440FFF1F501BFF1F7A
:10226000581BFF1F4C1BFF1F4A1BFF1FF0B5F6EE4C
:10227000007A30EE270A9FB0FDEEC07A244D254942
:1022800044220DA817EE904A6F4601F0F3FC05F1C9
:10229000300E28686968AA68EB683E460FC610359C
:1022A00075453746F5D12A88AB783280B3700CAAD1
:1022B000002352F8041F8C4206D00133112BF8D1B1
:1022C0009FED150A1FB0F0BD14490A68002AFCDB17
:1022D0001EAA03EB43031344114D13F8781C33F883
:1022E000774C104A0139601E0903C0F30B0001F45A
:1022F0007F210143296013F8783C02FB03F393FB31
:10230000F4F300EE103AB8EEC00A1FB0F0BD00BF03
:10231000947E0000507E00000000000000F10240AA
:1023200004F1024095BA0A000E4A0F4B12681B686E
:102330000E49F0B4D2001960910804240C4F1F61BB
:1023400089B240F20226D98206250020D983524262
:10235000DE809C609C809D83DA6098829861F0BCEE
:10236000704700BF440FFF1F5C1BFF1F0006FF1FCD
:1023700020F00240184A4FF0804313601368002B8E
:10238000FCDBF0B5154C1648DFF884E01549164A19
:10239000164B174E174D184F4FF2FE0CC4F800C0E5
:1023A000002404600120CEF80000DFF868E0C1F8E6
:1023B00000E04FF480311160104A1A60104B336016
:1023C0002C6038600F4C1048104F776745F8541C4C
:1023D00022600360F0BD00BF00F1024004F1024042
:1023E00060F0024008F002400CF0024010F00240A1
:1023F00014F00240E0F0024084F002401B1F010094
:10240000001F1F1F90F0024094F00240010000479F
:1024100004F002400100000708B5104B10491A688B
:10242000104842F400421A600A6842F002020A6050
:102430001A6842F002021A600368002B0DDB0A4B97
:102440001B68002B09DBFFF795FF08480849094A7C
:102450004FF4C06303600B60136008BD3C80044010
:102460004080044000F0024080F0024008B0044088
:102470000CB0044018B00440F8B5244C244F054675
:102480000E462046012102F0D3FF224A224B30465D
:10249000002616601E60FFF7BFFF204B4FF4C0629E
:1024A0001A602846FFF740FF237903F1804303F5C4
:1024B00004338D221E701A7002F060FF2279184BCF
:1024C000DFF870E0187053111649174814469B0046
:1024D0008EF8004003F160434FF080740C6003F508
:1024E00061430F6002F1100601241049104F40F8BB
:1024F000267002F01F0204FA02F21A6091ED000A3F
:10250000FFF7B4FE85F83040F8BD00BF5C1BFF1F2D
:1025100001000090541BFF1F501BFF1F04B004401C
:10252000481BFF1F00F00240000AFF1F400FFF1F63
:10253000D51E00001B8000400121FFF79DBF00BF9A
:10254000024A0349034803F03DBF00BF300FFF1F9D
:102550009D1B00005C1BFF1F024A0349034803F058
:1025600031BF00BF300FFF1F9D1B0000641BFF1F0A
:1025700010B4074C074A0849084800232360146830
:102580000C60096811605DF8044B0370704700BF70
:1025900038100B4030100B406C1BFF1F701BFF1FCF
:1025A00090F8383090F839209A4286BF1B18187E70
:1025B0004FF0FF30704700BF704700BF38B5054689
:1025C000B0F85E0090B195F85D301446C3F1210279
:1025D00094420CD805F13B001844224601F04AFB16
:1025E00095F85D30234485F85D30204638BD0120E4
:1025F00014462871EEE700BFB0F85E306BB190F87A
:102600005D30202B07D8C218013380F85D300120DF
:1026100082F83B107047012303710020704700BF10
:102620000023426980F8383080F8393080F85C3017
:1026300080F85D3080F85E3080F85F3006CA30B4D4
:102640000D68046943662A4383660A60A370426981
:1026500090F861301649146813441D7A5B7B01EBD6
:10266000C5051B026D6803F4E06343F064032B604F
:1026700090F8623013449D7CDB7D01EBC5011B02A9
:10268000496803F4E06343F064030B602168536816
:10269000194205D003692C225A70036904229A71E9
:1026A000036920225A71036980229A7030BC7047F6
:1026B0006880000038B50269D478E4B2E1060546C6
:1026C00024D51023D37063061FD504F0040404F04E
:1026D000FF03002C5AD042496A6E00230B7085F824
:1026E0005D30002A66D0904795F85D30002B61D0B0
:1026F0002B69D0229A702B6995F83B201A712B69AF
:10270000012285F85C200222DA7038BD04F0400313
:1027100003F0FF00002BD8D19379DBB203F0600106
:1027200060294ED0937803F0100303F0FF01B3B19A
:1027300014F0010437D195F85C3095F85D1099429A
:102740004BD9591C2B4485F85C1093F83B3013711E
:102750002B69D0229A702B690222DA70D5E785F8AE
:102760006010937943F0200393712B6995F8391029
:102770001A791F29D2B2C6D8194800780028C2D0C9
:102780006818013185F839100276BCE72A6985F8A6
:102790003930C02393702B69114A197901211170C6
:1027A0000222DA70B1E7C02393702B691A790222F2
:1027B000DA70AAE70122002385F85D2085F83B3016
:1027C00096E703F0DF039371AB6E23B185F8380011
:1027D00095F8390098472A69A4E71471B8E700BF53
:1027E000711BFF1F2DE9F047374FDFF8E0903B6882
:1027F000026982B006460093DDF8008000214FF4A4
:102800009675D3789B065BD53B680193019BC8EB1B
:1028100003030F2BF5D949B1102BF2D00020907093
:10282000336980229A7002B0BDE8F087726996F829
:10283000613013440521187A01F03AFC726996F868
:1028400061301344012193F812A0504601F030FC8E
:1028500009240021504601F025FC2B46013BFDD107
:102860000121504601F01EFC2B46013BFDD1013CED
:10287000EFD1706996F8611001444FF416720C7A2A
:102880004B7B09EBC4011B02496803F4E06343F08E
:1028900064030B6096F862300344997CDB7D09EB9E
:1028A000C1011B02496803F4E06343F064030B6059
:1028B000013AFDD13269D3789B064FF00101A3D4D0
:1028C000012002B0BDE8F087801EFF1F6880000075
:1028D000F0B503691222DA700269937803F02003DD
:1028E00085B004460D46002B5ED0B42393703C495E
:1028F00022690B680093009E05E00B680193019B21
:102900009B1B042B42D8D37803F0200303F0FF0075
:10291000002BF2D094F85D30002B31D04FF0000E38
:102920004FF0020C04EB0E0393F83B3013710B686D
:102930000393039F206907E09B060DD50B68029364
:10294000029BDB1B052B28D8C378DBB203F0020205
:1029500002F0FF06002AEFD080F803C02669F37862
:10296000DBB2DF0632462DD49F062BD5DB0731D4F0
:102970000EF1010E94F85D305FFA8EFE7345D1D8EA
:1029800000201DBB002384F85E3004E090702369B2
:1029900080229A70042005B0F0BD867023698022E1
:1029A00004209A7005B0F0BD03F0FF06FFF71AFF90
:1029B00010B9042005B0F0BD236984F85F60B0222F
:1029C0009A7094E78023B3700420DAE726698023A5
:1029D000B370D7E7BEF1000F0CBF02200320F6E76B
:1029E000801EFF1F2DE9F04106690025122780F89F
:1029F000385080F83950F770D0F810C09CF802E0D9
:102A00000EF0200E88B00446884615461E46BEF1DC
:102A1000000F49D0B4238CF802307A4B21691A6830
:102A20000092DDF800E006E01A6801920198CEEB12
:102A30000000042830D8C87800F0200000F0FF071C
:102A40000028F1D04FEA480242F00102D2B20A71E6
:102A50001A680292DDF808E0206906E01A6803921D
:102A60000399CEEB010105292AD8C17801F00201B2
:102A700001F0FF070029F1D04FF0020C80F803C0ED
:102A80002269D17811F0110722D12DBB002E0CBF85
:102A9000A0238023937003E08F70236980229A70B3
:102AA000384608B0BDE8F0810EF0FF07FFF79AFE48
:102AB0000028F5D0236984F85F70B0229A70ACE7E3
:102AC00087702369802238469A7008B0BDE8F0818B
:102AD000802393700027E3E7012D78D0A021917027
:102AE00021690A79BE4667464FF0A80C1A6804921D
:102AF000049805E01A680592059A121A052A4DD81D
:102B0000CA7802F0020202F0FF08002AF2D0CF7069
:102B10002169CA78D2B212F0100F08465DD1920630
:102B20005BD5013DEDB2012D4CD0BEF11F0F3ED95A
:102B30000A79012DDAD11A680692069D05E01A6815
:102B40000792079A521B052A56D8C27802F0020251
:102B500002F0FF01002AF2D00223C3702269D37869
:102B6000DBB2D9063BD49B0637D5B023BEF11F0F8D
:102B7000937043D8226904EB0E0312791A760EF192
:102B8000010E5FFA8EFE00BF00BF00BF16B12369C1
:102B900080229A7084F839E0774681E781F80280D4
:102BA000236980229A70774684F839E078E704EB4D
:102BB0000E0291F8048082F818800EF1010E5FFA7F
:102BC0008EFEB6E781F802C021690846ADE7A8216C
:102BD00091702069BE460279ADE7774660E7102123
:102BE0004FF49673D170013BFDD12269937803F0C5
:102BF000F7037746937053E78170D1E723691B7918
:102C0000C1E700BF801EFF1F0148FFF753BD00BF93
:102C1000B40FFF1F0148FFF74DBD00BF2010FF1F7D
:102C20000148FFF747BD00BF480FFF1F10B4047FE6
:102C30004160022CC26003D05DF8044B02F07ABC04
:102C400083685DF8044B1847F0B4464B464A986BCE
:102C50005C6B01791170454922790A701A6B007911
:102C60000870002A46D05968C9688A423ED821684F
:102C7000CC8B240402F1FF3065D4C0F30E00C8836E
:102C8000C88B80B2C882996B0968C88B000452D483
:102C9000C2F30E00C883C88B002480B212F1FF3249
:102CA000C88218BF01221C63596B2E4809680D6841
:102CB00000F12C04A54236D00068C46814F0804F9F
:102CC0000C680D6815BF248824780235013544F05E
:102CD00000440D604463996B254B097919702149B3
:102CE00012B14A6B12791A70F0BC7047521A1A630B
:102CF0000122D9E7D86B196805681E4C0A63CC62BB
:102D0000CC682D681C4E24F080440327B542CC606B
:102D100083F82D701FD1037F4260022BC2601ED04A
:102D2000F0BC02F007BC016890F82C00CC6840F0C1
:102D300000404863CFE7CC8BC2F3080004F47E4424
:102D40002043C883A7E7CC8BC0F3080004F47E447B
:102D50002043C88394E72B461146F0BC184783688C
:102D6000F0BC18478C10FF1F1F8000401C800040E3
:102D70001B80004000000FFF2D2C0000024A034979
:102D8000034803F01FBB00BF300FFF1F9D1B000057
:102D9000741BFF1F38B5074D074C08482A462146CB
:102DA00003F010FB2A4621460548BDE8384003F0F1
:102DB00009BB00BF300FFF1F9D1B00007C1BFF1FC6
:102DC000841BFF1F024A0349034803F0FBBA00BFFC
:102DD000300FFF1F9D1B00008C1BFF1F024A034981
:102DE000034803F0EFBA00BF300FFF1F9D1B000028
:102DF000941BFF1F024A0349034803F0E3BA00BFD4
:102E0000300FFF1F9D1B00009C1BFF1F024A034940
:102E1000034803F0D7BA00BF300FFF1F9D1B00000F
:102E2000A41BFF1F024A0349034803F0CBBA00BFAB
:102E3000300FFF1F9D1B0000AC1BFF1F024A034900
:102E4000034803F0BFBA00BF300FFF1F9D1B0000F7
:102E5000B41BFF1F024A0349034803F0B3BA00BF83
:102E6000300FFF1F9D1B0000BC1BFF1F024A0349C0
:102E7000034803F0A7BA00BF300FFF1F9D1B0000DF
:102E8000C41BFF1F024A0349034803F09BBA00BF5B
:102E9000300FFF1F9D1B0000CC1BFF1F024A034980
:102EA000034803F08FBA00BF300FFF1F9D1B0000C7
:102EB000D41BFF1F024A0349034803F083BA00BF33
:102EC000300FFF1F9D1B0000DC1BFF1F024A034940
:102ED000034803F077BA00BF300FFF1F9D1B0000AF
:102EE000E41BFF1F024A0349034803F06BBA00BF0B
:102EF000300FFF1F9D1B0000EC1BFF1F024A034900
:102F0000034803F05FBA00BF300FFF1F9D1B000096
:102F1000F41BFF1F024A0349034803F053BA00BFE2
:102F2000300FFF1F9D1B0000FC1BFF1F704700BFE1
:102F3000064B074ADA620221002259609A7083F830
:102F4000242083F8302083F832207047041CFF1FB0
:102F5000588000002049214A0B6843F080030B6031
:102F600011461368DB07FCD40B689B07F9D41C4B94
:102F700030B44FF08072184D186000E0A2B129689B
:102F8000184B154C0B40013A002BF7D062B1012BC6
:102F90000AD1236813F0800F23680FD043F0011388
:102FA0002360032030BC70470B4A136843F470233E
:102FB00043F001031360012030BC704713F48030EC
:102FC000236804D043F0011323600520F4E743F0A5
:102FD00001032360F0E700BF30100B4024100B40CA
:102FE0000C100B4001000E0070B50D4D0D480E4E3B
:102FF00000232B60FFF7AEFF40F2E7340346326850
:10300000520701D507480BB1184670BD2B60FFF77A
:10301000A1FF013C0346F2D1002808BF052070BD86
:1030200008100B400000DB0C24100B40F8B5384BA7
:103030001A780AB10320F8BD5B78064603B9490245
:10304000344D354C354B36484FF6FF774FF48132CF
:103050002F6021601A60FFF77DFF0028EBD1314B14
:1030600031491B681C3406F1400206F510702B68CC
:10307000284F43F0200613F4E00F2E603ED1236862
:103080001E05FCD50B6842F8403C0B6842F83C3CFE
:103090000B6842F8383C0B6842F8343C0B6842F845
:1030A000303C0B6842F82C3C0B6842F8283C0B681B
:1030B00042F8243C0B6842F8203C0B6842F81C3C68
:1030C0000B6842F8183C0B6842F8143C0B6842F855
:1030D000103C0B6842F80C3C0B6842F8083C0B684B
:1030E00042F8043C40328242C1D1002009490B68B9
:1030F000084A9B07FBD50D4B1360F8BD43F4E00372
:1031000043F020033B60FFF76FFF0120EEE700BFB5
:10311000581CFF1F30100B4008100B4004100B40D0
:1031200010003A1110100B4020100B40220000013B
:10313000F8B52B4B1A780AB10320F8BD5B7804462A
:1031400003B94902274D28482A68284B2A604FF4C2
:103150008132016026481A60FFF7FCFE0028ECD19E
:10316000244B254E1B68294604F500770B681D4A41
:10317000D806FBD52B6813F4E00F1AD104F14002F6
:1031800054F8043B3360A242FAD10B68DFF854E0F4
:1031900043F010030B600B6813F4E00013D1974267
:1031A000E4D110490B680F4A9B07FBD5134B136002
:1031B000F8BD136843F4E00343F010031360FFF716
:1031C00013FF0120EDE7DEF8003043F4E00343F0A5
:1031D0001003CEF80030FFF707FF0120E1E700BF42
:1031E000581CFF1F30100B4008100B4004100B4000
:1031F00000003A1810100B4020100B401200000184
:1032000010B50121007800F04DFF114A1378C3B1C9
:103210001049CB7A00241846147093B1DA0703D50D
:103220000D4AC869106018469C0703D50B4B0A6A03
:10323000C87A1A60420705D4030702D5084B8A6A88
:103240001A6010BD074B4A6AC87A1A60F4E700BFDB
:103250006C1CFF1F8C10FF1F00E100E004E100E088
:103260000CE100E008E100E0234B1A781AB1007885
:10327000002100F017BF70B4204A2149D47A0968B0
:1032800001251D70002C26D072B6D47AE60723469D
:1032900006D51C4DD3682E683340D3612B6023467E
:1032A000A50706D5184D14692E68D37A34401462E8
:1032B0002C605C0706D5154D54692E68D37A3440CE
:1032C00054622C601B0705D5114C936925682B406F
:1032D0009362236062B61368DA688A4207D00D4CA5
:1032E0001C600D4AD96041F080441C611A6000786E
:1032F000002170BC00F0D6BE6C1CFF1F8C10FF1F9D
:10330000681CFF1F80E100E084E100E088E100E04C
:103310008CE100E001403F0000003F80F0B4124823
:10332000124A036882B016460093009F4FF0004592
:10333000FF24136843F480631360D5625463D36A37
:10334000002BFCDAB36BDBB2FF2B09D003680193CF
:10335000019BDB1B8B42ECD3002002B0F0BC70471A
:10336000012002B0F0BC7047801EFF1F00C0024069
:10337000F8B50D464FF4967116460446FFF7CEFF9A
:10338000284B1A684FF0004042F4806245F040013B
:103390001A60D8621A465963D36A002BFCDA2149B5
:1033A00018204FF000470A6826FA00F342F48062C2
:1033B000DBB20A60CF624B63CB6A002BFCDA0838C1
:1033C00010F1080FEFD155B3082D0CBF8721FF2155
:1033D000144B1A684FF0004042F480621A60D862C1
:1033E0001A465963D36A002BFCDA0E4A00271646A8
:1033F0004FF00045FF21136843F480631360D562EA
:103400005163D36A002BFCDAB36BD8B21B06607031
:1034100000D4F8BD0137B7F5807FECD1F8BD952118
:10342000D6E700BF00C00240F0B41549154A0B684A
:1034300082B016460093009F4FF00045FF241368AA
:1034400043F480631360D5625463D36A002BFCDAC3
:10345000B36BDBB2FF2B43700AD10B680193019B66
:10346000DB1BB3F5967FEAD9002002B0F0BC7047B1
:10347000A3F1FE00B0FA80F0400902B0F0BC704742
:10348000801EFF1F00C00240F8B58378032B0E4654
:10349000044618BF4E021546FFF7E6FE32461121DC
:1034A0002046FFF765FF18B92046FFF7BDFF20B99A
:1034B0002046FFF7A5FE0020F8BD204B2049214AF9
:1034C0001A608E4659631A4659631E46596305F5BC
:1034D000FD70A91C05F5FE77D36A13F0F00FFBD041
:1034E000C6F834E0B36B01F8013C1B1201F8023C52
:1034F00002318F42F0D105F50075A8420DD20F4A76
:103500001646D36A13F0F00FFBD0B36B191200F814
:10351000021BA84200F8013CF3D3084B0949084AB2
:10352000196019465A63CB6A044A13F0F00FFAD0B7
:103530002046936BFFF764FE0120F8BD00C00240F7
:10354000FFFF009000041F80F0B4314E33684FF04D
:10355000004743F4806333603D46F762344671634D
:103560003346511C02F20127E26A002AFCDA1A688B
:1035700011F8016C42F480621A60DD625E63E26AF7
:10358000002AFCDA1A6811F8026B42F480628F425A
:103590001A60DD625E63E7D11D49CA6A1C4B002ACE
:1035A000FBDA1A684FF0004542F48062FF241A608B
:1035B0001946DD625C63CB6A154A002BFBDA13689F
:1035C0004FF0004543F48063FF2413601146D56239
:1035D0005463CB6A0E4A002BFBDA13684FF00045A8
:1035E00043F48063FF2413601146D5625463CB6AB1
:1035F000074A002BFBDA936BDBB203F01F02437028
:10360000A2F10500B0FA80F04009F0BC704700BF9D
:1036100000C0024070B5044671B18378032B0D469B
:1036200018BF4D021646FFF71FFE2A4618212046F6
:10363000FFF79EFE054620B12046FFF7E1FD002082
:1036400070BD3246FE212046FFF77EFF0028F3D0F2
:103650004FF416712046FFF761FE0028ECD02A4691
:103660000D212046FFF784FE0028E5D10B4B1A6898
:103670004FF0004542F48062FF201A601946DD6277
:103680005863CB6A054A002BFBDA936B13F0FF0FEC
:10369000D2D12046FFF7B4FD012070BD00C002402A
:1036A000014B024A1A607047681CFF1F0320003854
:1036B00038B590F90530002B03DBBDE8384000F049
:1036C00079B904460121006900F0B4F9F8B1257D0B
:1036D000104B13EB45151AD0A3790F4A012B9CBF51
:1036E000A369EB61E36912686B831B0CAB8232B197
:1036F00005F1160105F1180090472B8B6B82637959
:1037000003F07F036371BDE8384000F053B9002037
:1037100038BD00BF7C1CFF1F701CFF1F10B500F1DF
:10372000080204460121006A00F02CFA50B1E36956
:103730003BB96379A268E26163F07F0363710120A2
:1037400010BD012010BD00BFF8B5837913B18269A7
:103750008A4201D20020F8BD022B0F4605461AD03E
:1037600007B32B6AE9681C7C4A1E04F109037C1E1E
:10377000DA40DC40A24211D9EB69AB6005F10806E2
:1037800006E0A968286A00F0C5F9013C0028E1D0EC
:103790003246002CF5D1EF600120F8BD0029EBD0B6
:1037A000A41AEBE7AF60EF600120F8BD2DE9F04F00
:1037B0008B46817985B001290746019205D0012306
:1037C0003B71002005B0BDE8F08F42799107F6D536
:1037D000530708D5FC68B9698C4200F0B480FFF744
:1037E000B3FF0028EBD0019BFC68002B4AD0DFF828
:1037F000A491DFF8A4A1DDF80480386A0679013EBF
:1038000006EA542616F0FF06C4F3080443D1002C40
:1038100041D1B968002973D1FA69002A00F0838088
:10382000BA60C4F50075ADB245453AD9057C416929
:10383000023AAA400E4416441FFA88F51CB9F868EB
:10384000BA6990424FD23046012100F0F3F80028C7
:10385000B5D04C4404EB050E74450DD00BF1FF318F
:10386000621E0EF1FF3611F8010F02F8010F9642A9
:10387000F9D1C4EB0E04A344FC68B8EB05082C4452
:10388000FC60BAD1BB69A34262D27A79BC6142F0D2
:1038900080027A7165E0C4F50075ADB24545BA683D
:1038A000C4D8017C4069023A8A400644B5F5007FDD
:1038B0001644C3D1DAF80020964204BF4FF0FF321D
:1038C000CAF800202F4A10680278FE2A314633D009
:1038D0005A46FFF79FFE00283FF471AF0BF5007BBF
:1038E0004FF40075C8E700F065F800283FF467AFB3
:1038F0002549CAF800600A7842F001020A70A8E778
:1039000003AA00F007F900283FF45CAF386A1F4BA8
:1039100090F82050039A4FF6F871102D18BF1946F1
:103920008A42FFF47DAF3846FFF7F8FE00283FF4E7
:1039300046AF386ABA6874E75846FFF7F9FBB0FA41
:1039400080F04009C7E7019B002B7FF450AF08E0EF
:103950000F4B7A791B6823B1019B13B142F08002AF
:103960007A71120709D5BB79002B3FF428AF38468E
:10397000FFF79EFE00283FF422AF019805B0BDE896
:10398000F08F00BF781CFF1F7C1EFF1FF8FFFF0F8A
:10399000701CFF1F7C1CFF1FCC10FF1F00B583B0E5
:1039A00002AB012203F8011D1946FFF7FFFE03B029
:1039B0005DF804FB70B51A4C23780BB9012070BD7B
:1039C000184D194B286819680378FE2B17D0174A31
:1039D000FFF720FE88B1164E316819B90023237015
:1039E000012070BD28680378FE2B0FD00F4AFFF727
:1039F00011FE10B100233360F0E7002070BD0B48CA
:103A0000FFF796FBB0FA80F04009E3E70748FFF7BD
:103A10008FFBB0FA80F040090028EBD1EDE700BF42
:103A20007C1EFF1F781CFF1FCC10FF1F7C1CFF1F7C
:103A3000741CFF1F70B5124D2B6883420E4611D0C7
:103A40000446FFF7B7FF08B9002070BD0D4B18689A
:103A50000378FE2B0CD00C4A2146FFF715FD0028F9
:103A6000F2D02C60094B197831431970012070BDD8
:103A700021460548FFF7DAFAB0FA80F04009EEE790
:103A8000CC10FF1F781CFF1F7C1CFF1F7C1EFF1F1C
:103A9000F8B590F82030C469102B1A4B05460E4635
:103AA00017461B6816D004EBD1149C4216D106F0C1
:103AB0007F06154A42F826701449287E0A780128A4
:103AC00042F001020A7018D9A968114A0B44136028
:103AD0000120F8BD04EB11249C4208D000212046AF
:103AE000FFF7A8FF50B195F82030102B07D1F6B2A0
:103AF000054A234622F81670DEE70120F8BD23466A
:103B0000D5E700BFCC10FF1F7C1CFF1F7C1EFF1FD2
:103B1000741CFF1FC36801338B4218D370B590F833
:103B20002030102B154B044616460D46C0691B6805
:103B30000FD000EBD11098420FD105F07F01104B50
:103B400053F8213023F070433360012070BD002012
:103B5000704700EB1120984207D00021FFF76AFF61
:103B600050B194F82030102BE7D1E9B2044B33F870
:103B700011303360012070BD002070BDCC10FF1FDC
:103B80007C1CFF1F2DE9F04F176883B06FB301371E
:103B90004FF0000AC36803F1010813B38B460646D1
:103BA00091463C46002505E01C461F46F36801355A
:103BB000AB4216D9A04538BF0224214601AA30469F
:103BC00038BF2746FFF7A6FF631CD91B48B1019AEF
:103BD000002AE9D18B4510D01C46F3680135AB4271
:103BE000E8D8002003B0BDE8F08FA1F1010ABAFACD
:103BF0008AFA07684FEA5A1ACCE7012CF1D9F36820
:103C000001339C42EDD86FF0704221463046FFF7F9
:103C10003FFF0028E5D0A74214D2013C012CE0D997
:103C2000F36801339C42DCD8621C21463046FFF722
:103C30002FFF0028D5D0A74204F1FF3402D0012C79
:103C4000EED1CEE7D9F8001059B10129C9D9F368EE
:103C500001339942C5D83A463046FFF719FF00288C
:103C6000BFD0C9F80070BAF1000F01D0013737603A
:103C70000120B7E7844641EA000313F003036DD146
:103C8000403A41D351F8043B40F8043B51F8043B1F
:103C900040F8043B51F8043B40F8043B51F8043B26
:103CA00040F8043B51F8043B40F8043B51F8043B16
:103CB00040F8043B51F8043B40F8043B51F8043B06
:103CC00040F8043B51F8043B40F8043B51F8043BF6
:103CD00040F8043B51F8043B40F8043B51F8043BE6
:103CE00040F8043B51F8043B40F8043B51F8043BD6
:103CF00040F8043B51F8043B40F8043B51F8043BC6
:103D000040F8043B403ABDD2303211D351F8043B65
:103D100040F8043B51F8043B40F8043B51F8043BA5
:103D200040F8043B51F8043B40F8043B103AEDD214
:103D30000C3205D351F8043B40F8043B043AF9D265
:103D4000043208D0D2071CBF11F8013B00F8013B38
:103D500001D30B8803806046704700BF082A13D345
:103D60008B078DD010F003038AD0C3F10403D21A5D
:103D7000DB071CBF11F8013B00F8013B80D331F891
:103D8000023B20F8023B7BE7043AD9D3013A11F811
:103D9000013B00F8013BF9D20B7803704B7843707C
:103DA0008B7883706046704730B42948294A2A4B83
:103DB0002A4D6024E121047011701B78284C082BD7
:103DC00030D00A2B2748284937D00C2B0CBF35227E
:103DD0005D2212232A60236002600B60234B24497A
:103DE0001B78244ABBB101230B601360224B23498B
:103DF0001B78234A012B26D9042B0FD9082B1ED957
:103E0000102B94BF862387230B6013601D4B012268
:103E10001A7030BC70470B601360E7E784230B60B7
:103E20001360F3E700F58E200F4908302122132399
:103E30002A60236002600B60D0E73922F7E7852310
:103E40000B601360E2E780230B601360DEE700BFC6
:103E50000040074001400740D010FF1F08B003405A
:103E60000CB0034008B00B400CB00B407E1EFF1F8F
:103E700020B0034020B00B40D110FF1F24B00340FE
:103E800024B00B407D1EFF1F08B5104C08E02368CE
:103E900059050DD423681A050FD42368DB0411D407
:103EA00023685803F3D500F0EBFA23685905F1D5E0
:103EB00002F0A8F923681A05EFD500F009F8236885
:103EC000DB04EDD500F004F8EAE700BF34800440DD
:103ED00008B5FFF7D9FF00BF014B10221A807047C9
:103EE00000200540704700BF094908B50B6830B194
:103EF0006A461844A2F50052904202D20860184661
:103F000008BD02F0F3FE0C2303604FF0FF3008BD44
:103F1000D410FF1FFEE700BFEFF3138070B9EFF37B
:103F200010836BB9EFF305825AB94FF48070EFF349
:103F300011832BB1984228BF184670474FF0FF30CD
:103F400070470F2A01D81846F1E7014BD05CEEE725
:103F5000F0E300E0084A1378802B01D0002070477E
:103F60000649074B07480860002119701378802B19
:103F7000FCD00120704700BF03E0074044800440AC
:103F800001E0074000002822094A1378012B01D0E4
:103F90000020704703F1804303F5FC236021197072
:103FA0001378802BFCD1034B034A1A600120704721
:103FB00003E00740448004400000060210B4114BA7
:103FC00053F8302092F8804234B1012379B182F85D
:103FD00080305DF8044B704703EBC0035B681A68E0
:103FE00051B922F002021A605DF8044B704782F862
:103FF00000315DF8044B704742F003021A605DF82F
:10400000044B7047688000001C4A02EBC003012982
:104010005B6811D004291BD052F83000002280F8D0
:10402000802229B1022920D0032922D01A607047AA
:104030004FF480721A60704752F830004FF4A27249
:1040400080F880121A601A6822F020021A60704705
:1040500052F830104FF4A272012081F880021A60E9
:104060001A6842F020021A60704740F203121A6088
:1040700070474FF481721A60704700BF688000007B
:1040800030B4054B054D064C002210211A602A6001
:104090002060196030BC704714D0034004D0034046
:1040A00000D003403F2801D8FFF788BF704700BF0A
:1040B0003F2801D8FFF7A8BF704700BF2DE9F8439C
:1040C000054672B6224F234B234A1B683C68126890
:1040D00062B6520102D5322B88BF0134B5B3C3F5A5
:1040E0002F3303F21F331D4EDFF86890DFF868802E
:1040F0009B084FF47A72A6FB031302FB04F404EB53
:10410000930472B6D9F800103A68D8F800E062B6A5
:10411000C1F52F3303F21F339B08A6FB03031EF0E8
:10412000806FC4EB93034FF47A7002D0322988BFBA
:10413000013200FB0233B3F57A7F04D3013D05D091
:1041400004F57A74DDE701F045FCDAE7BDE8F883B1
:10415000801EFF1F18E000E004ED00E0176CC116A0
:10416000F8B54E4B4E48DFF85CC14E4C4E49DFF877
:1041700058E14E4E4E4D4F4F4FF000621A604FF0D7
:1041800080521A604FF000521A604FF080421A605D
:104190004FF000421A600022026028234EF6FF70A2
:1041A000CCF80000CEF8003023600EF5012E0B6035
:1041B00033602B6006F500263B6005F50025A36201
:1041C00007F500278B6204F5012401F5012106F6AD
:1041D000E87605F6E87507F57F6710310EF1100EE9
:1041E000203433602B60CEF800303B600B602360DE
:1041F000314CBB618B6109212160A7F5002704F5D3
:104200008054203F08343A602060BB60E36047F888
:10421000041C04F5FD2407F5FE27043704F2FC74A2
:1042200022603860A360FB6044F8041C083404F684
:10423000FC74C7F8FC2F2060A4F5E124A4F2DC7420
:1042400033602B60C7F8F81F21681C4841F40071E7
:10425000216001681A4C0EF57F4E0EF1E80E07F54D
:10426000883706F5803605F5803541F0007101602C
:10427000CEF8002047F6FF710822396033602B60CA
:104280002260FFF791FD1920FFF718FF00F05EFE96
:1042900040F21310BDE8F840FFF710BF04E100E062
:1042A00004800340148003401C80034024800340AA
:1042B0002C8003403480034000800340048004408D
:1042C00000900C40088003400C800340431E032BE9
:1042D00014D872B60A4951F8230068B170B4094C79
:1042E000058834F81320466841F82360521B24F8EF
:1042F000132062B670BC704762B6704700207047EA
:10430000DC1EFF1F8820FF1F013803280BD872B660
:10431000074B53F8203043B100205B680130002B7D
:10432000FBD162B67047002070471846F9E700BF1E
:10433000301FFF1F30B472B62B4A13781D0706D505
:104340002A4B196A002936D0996A002941D053783E
:104350001C0706D5254B196C00293ED0996C002905
:1043600039D09378190705D5204B196E002936D01E
:10437000996E89B1D3781B0707D51C4BD3F88020E1
:104380007AB3D3F8882011213AB162B6184B0022D3
:104390001A7030BC00F062BE0D21154C154D22780C
:1043A00043F8315003EBC1030830013A58602270E2
:1043B00062B630BC704704220D4C0F4D217843F893
:1043C000325003EBC20308304A1E5860227062B6B6
:1043D000EFE70521E1E70921DFE70822ECE70C22FE
:1043E000EAE71022E8E700BF008300000000FF1F9B
:1043F000591FFF1FC800400088004000431E032BC8
:104400001DD81B4A400140F0100030B4104472B671
:10441000184CE25C032A1BD8DFE802F002121517E1
:1044200003220D88E25410F0080F14BFC82388231C
:1044300043EA054308310360416062B630BC70470F
:1044400008300222EDE70522EBE708300422E8E716
:10445000094A52F8230038B1084A52F82300416053
:1044600042F8231062B6E9E742F82310034AF7E75F
:104470000000FF1F681FFF1F301FFF1F401FFF1F8F
:104480002DE9F04FDFF818B3DFF818A387B044E048
:10449000AE4F4FEA930807EBC809013ED9F8042054
:1044A00003F00803F6B2A2F1080003F0FF04002BAA
:1044B00040F0048157F838301B0C99B222F8081CE0
:1044C000002B00F0F280A24B22F8064C42F8044C7C
:1044D00053F82620002A00F06E819E4D55F82630B4
:1044E00058609D4C45F8260034F81630194424F8DD
:1044F000161000F093FD002800F05681974A984B63
:1045000019F0080F00F1080018BF1346C9F804009D
:1045100047F8383008238BF800309BF80040E4B2AD
:1045200061071BD58F4B1B78ABB18F490A7802F01E
:10453000FF032AB1013BDBB20B70002B00F0EF84CC
:104540008A490A7802F0FF032AB1013BDBB20B7003
:10455000002B00F0F78004238BF8003004F00803F0
:1045600003F0FF02002B00F0D6809AF80030DBB297
:104570001E098DD19C08DFF8D49159F8342009EB3D
:10458000C401C2F38302013A49680C2A7ED8DFE8ED
:1045900002F081817D7D7D7D7D7D477D7D7D070074
:1045A0000868734D4A68734F734E286081B240F2B9
:1045B00081606A4B6A604FF0010E0022814249F827
:1045C00034303A60C9F81020C9F8182086F800E0A5
:1045D0005E4C00F2F480B1F5D06F80F07883B1F5D5
:1045E000817F00F0628300F28782802900F0EC82F4
:1045F000822940F01E83A98801F07F01042900F27E
:1046000018835E485E4C890008442270627002780C
:10461000930740F1798384F800E04FF0020ED8E26E
:10462000544F3A6842B3574B534E57491888347821
:104630000D784028864645F0020828BF4FF0400E0E
:10464000002C84F001043470CEEB00000CBF8824F1
:10465000C82409EBC80680B285F0010544EA0E447F
:104660007260188049F8384072440D7018B9BEF174
:10467000400F18BF00223A603D4B1A88B2F5A06F78
:1046800004D100219A785970404B1A70404A012396
:1046900013703FE7364A158842F22100854200F048
:1046A000FF812E4A49F83420F0E72C4A2C4B19F0B0
:1046B000080F18BF134647F838302BE700F0CEFC40
:1046C000344A354952F82630002B00F0B68158683C
:1046D0008C5D42F8260003F10802C9F80420032C7F
:1046E00005D8DFE804F0120F150204228A551A8853
:1046F00019F0080F0CBF8823C82343EA024347F888
:10470000383007E702228A55F1E703228A55EEE79F
:1047100005228A55EBE7E00700F11A82210600F135
:104720004982A20706D51D4A1D4913780220DBB233
:1047300013700870E30602D5194B10221A7007B0E7
:10474000BDE8F08F00F0F6FD05E700BF0000FF1F99
:10475000DC1EFF1F881EFF1F8820FF1FC8004000AF
:1047600088004000641FFF1FED1EFF1F6C1FFF1F0E
:10477000501FFF1F841EFF1FEC1EFF1FC02007409D
:104780005C1FFF1F981EFF1F581FFF1F9820074028
:1047900094200740301FFF1F681FFF1F882007401D
:1047A0008020074090200740AB4A47F83800137834
:1047B00001331370AEE643F82600A84D91E642F2AD
:1047C0002100814200F0358100F2AF81B1F5086F20
:1047D00000F01B82B1F5106F40F02B82226AA049D5
:1047E000A8780870120600F14583D9F828209D4961
:1047F000130600F13A83D9F830209A49150600F1E2
:104800002F83D9F838209749140600F12483D9F86A
:1048100040209449100600F11983D9F848209149A5
:10482000120600F10E83D9F850208E49130600F1CC
:104830000383D9F858208B49150600F1F882D9F87E
:1048400060208849140600F12983D9F86820854939
:10485000100600F11E83D9F870208249120600F17B
:104860001383D9F878207F49130600F10883D9F81B
:1048700080207C49150600F11C83D9F888207949ED
:10488000140600F11083D9F890207649100600F143
:10489000C882D9F898207349120600F1BC82724888
:1048A000724A7349019073486C4D734C049700230E
:1048B00005960295804617460E461D4603943868B5
:1048C00028B1446800F0CAFB2046002CF9D100232F
:1048D0003B60029B30681A46002342F8253028B11D
:1048E000446800F0BBFB2046002CF9D10022326066
:1048F000019A98F800301146002241F8042B039ADF
:104900000191023B4FF0000122F81510032B09D84A
:10491000DFE813F04B0104004B0104004FF00103EA
:1049200088F800300135042D07F1040706F104066C
:1049300008F10108C3D1514C514B2278464D049FD8
:10494000059E002129701A70130700F14F826278CA
:104950004C49DFF810810A7010074FF00001C9F8C8
:104960003010C9F8381000F12B824749A2780A703C
:104970000021C9F85010C9F858101107DFF8E48079
:1049800000F1DC81E2784149364C0A7000211207BF
:10499000C9F87010C9F8781000F1B9813378019323
:1049A000002183F00102C9F89010C9F89810002086
:1049B000029080468446044635490D7845F0020E43
:1049C00009EBCE030393019B002B039B5C600CBFA0
:1049D0008824C82444EA080385F0010449F83E30DD
:1049E00032700C70DFF87CE02A4BDFF8A4800028DE
:1049F00040F02681BCF1400F1BD144F0020C09EBC2
:104A0000CC03029CDFF85CE05C60002A40F02E8161
:104A1000020442F088029DF804304EF83C20044421
:104A200033700D702346402803D100201A4A3B60A2
:104A300010801A4A0123137028E68B5D032B00F2C5
:104A40002D8101A252F823F0154500001545000004
:104A50009F4B0000A54B0000591FFF1F881EFF1F22
:104A6000641FFF1F0000FF1F401FFF1FDC1EFF1FF2
:104A7000301FFF1F681FFF1F8820FF1F00830000DB
:104A8000C4200740C8200740CC200740D020074062
:104A9000581FFF1FEC1EFF1F981EFF1F942007408A
:104AA000928892B9B14A0D784878157050708D7817
:104AB000C8789570D07010680D79157186284D7979
:104AC00089795571917100F0A580A949A94E0A789C
:104AD000307882F00105002842F002020D700CBF10
:104AE0008821C82149F8321009EBC20280F0010088
:104AF000002130705160D4E540F20232914240F022
:104B00008D80A98801F07F01042900F292806A88D3
:104B1000002A40F08E809848CDF804E089000844CF
:104B2000017841F00201017041E742F22120814207
:104B30007BD1A988002940F0E480904B904A9148AD
:104B4000AC781D681560CDF804E00A4604702EE7C5
:104B50008D4B8E4886491A614FF0020E80F800E0B6
:104B6000854F0A708A49196099608A4E8A4D8B4C2C
:104B70009A610D213970FF213170DFF840E2297010
:104B80002270874D874A8EF800109F27012406F86F
:104B9000047C5D600470DA6007B0BDE8F08F00232C
:104BA0008B55B7E401238B55B4E44FF0000388F82C
:104BB0000030B7E67049784B80220D2008701A70DB
:104BC000A2077FF5B7ADAEE5774C4FF0020E22702D
:104BD0006270EA88724580F0A38165490D78402AA9
:104BE000944645F0020E28BF4FF0400C04EB0C0336
:104BF00009EBCE000293012344604FEA0C48CCEB52
:104C0000020001930022C824E4E6684A664C127848
:104C10002270DEE7664A0F21117056E7B1F5A06FEA
:104C200007D1012300220193C1E642F221329142D1
:104C3000F7D0514A0F231370544A0123137025E50E
:104C400040287FF6DAAE44F002040EEBC401029E67
:104C50004E60BAB19DF80410564A19703346403878
:104C600088F8005040334EF83420DFE69DF80430D9
:104C700033700204029B0D7042F0C80203444EF8E8
:104C80003C20D0E69DF804101970029B404A88F839
:104C90000050403840334EF83420C7E619F0080F72
:104CA0000CBF022303238B5534E4A98801F07F0154
:104CB0000429BED86A88002ABBD12F48CDF804E069
:104CC00089000844017821F0020101706FE63A4A38
:104CD0005468002CADD06888B5F804E003E00C32CD
:104CE0005468002CA5D013888342F8D153887345AB
:104CF000F5D1000A03280CBF94F800E0B2F808E0F0
:104D000067E7CDF804E052E64FF0020E61E700F0ED
:104D100085F9002800F0F18008301D4AC4F88400AD
:104D2000C4F8802000F07AF9002800F0E080083014
:104D3000204AC9F88C00C9F888202FE600F06EF9E7
:104D4000002800F0E6800830114AC8F86400C8F86E
:104D5000602000F063F9002800F0D5800830154A83
:104D6000C9F86C00C9F868200CE600BF9020FF1F4E
:104D7000581FFF1FEC1EFF1FC0200740801EFF1F93
:104D80009820FF1F7C1FFF1F0000FF1F942007407B
:104D90008800400088200740802007409820074076
:104DA0009C1EFF1FF01EFF1F5C1FFF1F641FFF1FC5
:104DB000ED1EFF1FC8004000048300008C20074048
:104DC00000F02CF9002800F08C8008305D4AC8F80B
:104DD0004400C8F8402000F021F900287BD00830BA
:104DE000594AC9F84C00C9F84820BEE500F016F948
:104DF00000286AD00830534AC9F82400C9F8202096
:104E000000F00CF900285AD008304F4AC9F82C009D
:104E1000C9F828209BE5D1F89C00083800F01EF95D
:104E20003DE5D1F89400083800F018F931E5C86D77
:104E3000083800F013F902E5486D083800F00EF963
:104E4000F7E4C86C083800F009F9ECE4486C08385D
:104E500000F004F9E1E4C86B083800F0FFF8D6E48C
:104E6000486B083800F0FAF8CBE4C86A083800F05C
:104E7000F5F8C0E4606A083800F0F0F8B5E4C86FEF
:104E8000083800F0EBF8F2E4486F083800F0E6F874
:104E9000E7E4C86E083800F0E1F8DCE4486E083852
:104EA00000F0DCF8D1E4D1F88C00083800F0D6F836
:104EB000E9E4D1F88400083800F0D0F8DDE42A787D
:104EC000C9F8280001322A7041E52A78C9F8200083
:104ED00001322A7094E72A78C9F8480001322A7012
:104EE00043E52A78C8F8400001322A7073E72A782F
:104EF000C9F8880001322A7050E52A78C4F8800089
:104F000001322A700EE72A78C9F8680001322A7047
:104F100038E52A78C8F8600001322A7019E700BE27
:104F2000BEF1400FF44628BF4FF0400C04EB0C03D9
:104F300002930123CCEB0E004FEA0C4800220193B0
:104F40003AE500BF88004000C80040002DE9F0416C
:104F5000274C01F0DDF9002204F1A00023461A607D
:104F60005A60083383424FF00001F8D12148224AA9
:104F70000368DFF89CE0214E214D224FDFF894C0FA
:104F8000DFF8948043F480230360136843F0407398
:104F9000136003238EF80030A023337002F5C9227A
:104FA000C4F3072300F528302B708030C4F3074387
:104FB00010323B70240EFF230470134D8CF8003028
:104FC000124888F800301370012306F8AC3C4FF407
:104FD00000140EF8441C7026102107F82C3C2E708B
:104FE000046082F8F810AEF1440EBDE8F08100BF15
:104FF0000000FF1F3480044000D8004040210740DB
:105000009C200740B020074035E400E004E100E0C8
:1050100044210740802007408820074072B60D4891
:105020000268B2FA82F30B2B10DC4FF00041D9403A
:1050300022EA0102026062B6074803EBC303DB0009
:10504000C2180021C15010465160704762B600205E
:10505000704700BFD810FF1FD00BFF1F0D4B0E4A2B
:10506000C31AA2FB03231B090B2B0CD80B4A127883
:1050700052B972B60A484FF00041026821FA03F3B0
:105080001A43026062B67047064A1278002AF0D0CE
:10509000FFF750B9D00BFF1F398EE338591FFF1FA0
:1050A000D810FF1F641FFF1F38B50F4D286878B157
:1050B00043880288C118013393420C7A02D243809C
:1050C000204638BDFFF7CAFF002320462B6038BDBD
:1050D000064B1B782BB10320FFF7F8F82860002857
:1050E000E6D14FF0FF3038BD781FFF1F641FFF1F50
:1050F00010B5094C206818B143881844007A10BDD7
:10510000064B1B782BB10320FFF7E0F82060002846
:10511000F2D14FF0FF3010BD781FFF1F641FFF1F3B
:10512000044B054A1B6890881BB11A885B88D31A08
:1051300018447047781FFF1F8820FF1F0B4B1B78F8
:105140009BB110B50A4C206848B1FFF787FF0023D8
:1051500003202360FFF7BAF830B1FFF77FFF032089
:10516000FFF7B4F80028F8D110BD7047641FFF1F87
:10517000781FFF1F2DE9F04FDFF8F89083B0012270
:1051800089F80020019169B3DFF8EC80354F019E6A
:105190008346D8F80000B0B3334D4488C4F14001D1
:1051A000B14228BF314604EB010E00221FFA8EFEE9
:1051B0002A70761AA0F802E000F1080251B1013C11
:1051C000224459441BF8014B02F8014F8B45F9D199
:1051D000B0F802E0BEF13F0F0BD8244A0521117050
:1051E000002ED6D10198002389F8003003B0BDE825
:1051F000F08F4022028001460420FFF7FFF80022D2
:10520000C8F80020E9E73A7822B3194C164D4FF060
:10521000010A07E0013C16D02A78A2B900F0DAFBB7
:105220003A78BAB10420FFF76FF80728F2D889F866
:1052300000A0FFF7F3FEC8F800000028ADD10D4B29
:10524000013C1870E8D101234FF0FF302B7003B000
:10525000BDE8F08F00234FF0FF3089F8003003B035
:10526000BDE8F08F641FFF1F741FFF1F6C1FFF1F1F
:10527000214801006D1FFF1F701FFF1F00B583B085
:1052800002AB012103F8010D1846FFF773FF03B0CD
:105290005DF804FB38B50E4D0E4C286801232370D1
:1052A00028B1408800232370C0F1400038BD0A4B6C
:1052B0001B7813B90020207038BD0420FFF724F8B4
:1052C0000728F7D8FFF7AAFE28600028E9D1F1E700
:1052D000701FFF1F6D1FFF1F641FFF1FF8B5114BCD
:1052E0001B788BB1104E114D346801272F7064B1BB
:1052F0000F4A638800271770214623800420FFF798
:105300007DF8376000232B70F8BDFFF787FE084B50
:1053100028B1014604201C70FFF770F8F2E71F70F7
:10532000F0E700BF641FFF1F701FFF1F6D1FFF1FEF
:105330006C1FFF1F38B50E4B1B7873B90D4C2168DD
:1053400061B103F0FF054B880B800420FFF756F88E
:10535000256038BD084B01221A7038BDFFF75EFE8C
:105360000028F7D00146BDE838400420FFF746B8D2
:105370006D1FFF1F701FFF1F6C1FFF1F084B1A7848
:105380005AB90848084910B4D024047001221046C4
:105390000A601A705DF8044B70470020704700BF28
:1053A000841FFF1F40E400E008E100E01A491B4AA7
:1053B0001B48F8B50B681B4D046843F080730B6005
:1053C000136843F0010313602E6814B915E0646993
:1053D0009CB1237A002BFAD023682F681B682046E3
:1053E00098472B68E188DB1B1B099AB28B42A2808D
:1053F00088BFE2806469002CEBD10A4B0A4A1B6823
:1054000010880A4C9B1B1B0999B28342218001D949
:105410001180F8BDF8BD00BFFCED00E0001000E019
:10542000801FFF1F041000E0861FFF1F881FFF1F43
:10543000F0B572B699B902688AB103790F2B0ED80C
:10544000284C218841FA03F5ED070AD503F10073D2
:1054500003F59063B2EB431F03D162B6F0BD214C5C
:105460002188002341FA03F212F0010207D0013330
:10547000102BF7D162B6002203710260F0BD012546
:105480009D402943218062B6174E184D184FDFF812
:1054900068E0D9B20171346844F0020434602C68C9
:1054A00044F002042C60A6F5802640F28244A5F563
:1054B000802503F100733C6003F59063223E243D98
:1054C0000C4C8EF800105B01317029702170036064
:1054D0001A605A609A60DA601A615A619A61DA61F8
:1054E000F0BD00BF8A1FFF1F408004403C80044085
:1054F000008000401F8000401A80004003790F2B7D
:1055000012D80A4A10B4137072B6094904790A888D
:105510000123A34022EA03030B8062B6102200237A
:105520005DF8044B02710360704700BF1A800040B1
:105530008A1FFF1F10B4EFF3108272B6437F33B996
:10554000017F012908D0032910D00123437702B934
:1055500062B65DF8044B7047114C2168A1B1114946
:1055600043610B68836108605861EEE70E4C216867
:1055700081B10E4943610B688361086058610C4B2F
:105580004FF080511960E0E7064B41618161206076
:105590001860DAE7054B4161816120601860EEE731
:1055A000981FFF1F941FFF1F8C1FFF1F901FFF1FBF
:1055B00004ED00E070B5EFF3108272B60C4C206879
:1055C00080B10C4E00254369236073B19D6102B91F
:1055D00062B6457783689847EFF3108272B6206809
:1055E0000028F0D102B962B670BD3360EFE700BFAA
:1055F0008C1FFF1F901FFF1FFFF7DCBF024A1368BD
:1056000001331360704700BF801EFF1F0368C9B2DB
:105610001B6818470368C9B21B6818470368C9B2FA
:105620001B6818470368C9B21B681847084B4A082B
:10563000134410B50446B3FBF1F000F0B9FA054B82
:105640001B7803B110BD2046BDE8104000F0A2BE9B
:10565000002A7515F010FF1F08B5084600F0C4FCBD
:10566000012008BD08B5084600F0BEFC012008BDB9
:1056700038B508460D4601F043FE0446014628466B
:1056800000F0BCFC204638BD10B508461446114653
:1056900000F0B4FC204610BD00F08EBD08B50846F1
:1056A00000F07AFC003018BF012008BD08B508469C
:1056B00000F050FC003018BF012008BD084611461C
:1056C00000F0C4BB084600F00BBC00BF084600F069
:1056D000A1BB00BF00F02ABB10B5064B144603EB7C
:1056E0005100B0FBF1F000F063FA2046BDE8104035
:1056F00000F0E6BA002A751500F046BD00F010BDB6
:1057000000F0FEBC00F0DEBC00F0E8BCF8B50E46D0
:1057100071B17AB10746144600253B6816F8011BA3
:105720001B6838469847013C0544F6D12846F8BD29
:105730000846F8BD1046F8BD00B5064A0368128851
:105740005B6883B001A9ADF804200222984703B03A
:105750005DF804FBC8820000F0B507468BB0002A54
:1057600033D0012A08BF0A2251B3212400E0F4B249
:10577000B1FBF2F502FB1511C8B2092900F13001A5
:1057800098BFC8B20AA988BF3730214488BFC0B2C9
:1057900001F8240C661E2946002DE8D133B1013CE6
:1057A000E4B20AAB23442D2203F8242C3B6801AA5F
:1057B00011195B683846C4F1220298470BB0F0BD5E
:1057C00030228DF825202124E8E70368C9B21B6840
:1057D00098470BB0F0BD00BF0029BABF49422D2346
:1057E00000230A22FFF7B8BF2DE9F04357EC106BF6
:1057F00085B005460C4610EE102A3B4610EE100A06
:10580000394601F037FA002840F0B28027F000490D
:10581000304649464FF0FF32594B01F02BFA90B910
:10582000304649464FF0FF32554B01F005FA50B96A
:105830002B6854495B6828460322984780464046B7
:1058400005B0BDE8F0834FF060424F4B304639461B
:1058500001F006FA002872D14FF060424B4B3046FF
:10586000394601F0DFF9002869D1002200233046D3
:10587000394601F0D7F9002864D18146002C67D061
:10588000434900204FF000083BA3D3E9002308F16F
:10589000010800F055FF5FFA88F39C42F4D80246F5
:1058A0000B463046394600F099FD0F46064601F09A
:1058B000F7F9804600F0CEFE02460B4630463946E8
:1058C00000F08AFD4B4606460F460A22414628460E
:1058D000FFF742FF0F2C28BF0F2404F101092E23EC
:1058E00080465FFA89F98DF8003001240022294BA7
:1058F0003046394600F024FF0F46064601F0D0F945
:1059000004AB2344C0B200F1300203F8102C00F0C5
:10591000B1FE02460B463046394600F05DFD0134CB
:10592000E4B24C4506460F46E0D12B6822465B6840
:10593000284669469847404605B0BDE8F0832B6885
:10594000154977E707F100431F464FF0010995E736
:1059500000220F4B3046394600F040FD01F0A0F91F
:105960004B4601460A222846FFF7F6FE804666E7C8
:105970002B680A495EE700BF000000A09999B93F73
:10598000FFFFEF7FD4820000FFFFEF41FFFFEFC179
:105990000000E03F00002440D0820000CC820000E4
:1059A00008B5FAF7CFFEFAF703FF00F013F8FAE7AD
:1059B00001F0CAB9704700BFFFF7C0BBFFF798BB43
:1059C000FFF772BBFFF7ACBBFFF764BC084611469C
:1059D000FFF7D0BB2DE9F843314E337893B1314F07
:1059E0003A787AB90122D9073A7036D49A0719D48D
:1059F00000225B073A7005D52B4B1A6812B1EFF302
:105A000005820AB1BDE8F883EFF3108172B6186819
:105A100018B1264C2278002A2ED00029F2D162B685
:105A2000BDE8F883DFF8908098F80020002ADFD0E6
:105A3000DFF88890002405E0013498F80030E4B2E3
:105A4000A34212D959F824502B6828461B6998475D
:105A50000028F1D02B699847EEE7FFF761FBC8B942
:105A6000134B1B781BB93378C0E73378C0E7337822
:105A700003F0FE033370B9E745691D60012323700D
:105A80005DB1AA6101B962B6002545778368984780
:105A90002570B7E700F094FCE2E7064B1D60F1E7E4
:105AA0000411FF1F9D1FFF1F981FFF1F9C1FFF1F3B
:105AB000AA11FF1F941FFF1F5020FF1F3820FF1F38
:105AC000F0B44D1E2E46002400E00134B0FBF2F38A
:105AD00002FB1300092800F130078ABF3730F8B203
