:1000000000000320D1010000DD3301009533010021
:1000100095330100953301009533010095330100BC
:10002000953301009533010095330100DD33010064
:10003000DD33010095330100515301005553010098
:10004000DD330100DD330100DD330100DD3301006C
:10005000DD330100DD330100DD330100DD3301005C
:10006000DD330100DD330100DD330100DD3301004C
:10007000DD330100DD330100DD330100DD3301003C
:10008000DD330100DD330100DD330100DD3301002C
:10009000DD330100DD330100DD330100DD3301001C
:1000A000D91E0100E51E0100DD330100DD33010032
:1000B000DD330100DD330100DD330100193F0100B4
:1000C000DD330100DD330100DD330100DD330100EC
:1000D000DD330100DD330100DD330100DD330100DC
:1000E000DD330100DD330100DD330100DD330100CC
:1000F000DD330100DD330100DD330100DD330100BC
:10010000DD330100DD330100DD330100DD330100AB
:10011000DD330100D9410100DD330100DD33010091
:10012000DD330100DD330100DD330100DD3301008B
:10013000DD330100DD330100DD330100DD3301007B
:1001400005510100DD330100DD330100DD33010025
:10015000DD330100DD330100DD330100DD3301005B
:10016000DD330100DD330100F11E0100DD3301004C
:10017000DD330100DD330100DD330100DD3301003B
:10018000DD33010099100100DD330100DD33010092
:10019000DD330100DD330100DD330100DD3301001B
:1001A000DD330100DD330100DD330100DD3301000B
:1001B000DD330100DD330100DD330100DD330100FB
:1001C000DD330100DD330100DD330100DD330100EB
:1001D0005C4B4CF2205210B51A804DF628121A8052
:1001E00000BF00BF13F0FEF8574B4FF030621A60AB
:1001F000564A9A60564ADA60564B4FF470021A60BB
:10020000554B564A1A60564B1A78110703D51A787F
:1002100042F008021A70534B5349AA221A70534AEB
:10022000534B8B4204D252F8040F43F8040BF8E707
:10023000504B514900228B4202D243F8042BFAE77B
:100240004E494F4A002352F8230041F8230001335E
:10025000742BF8D14B4B4C4A802103F8011B93427D
:10026000FBD14A4B454A1A60494B8A221A70A3F5C2
:10027000805324225A70A0221A709A799207FCD5D2
:100280009A79D406FCD4434A937903F00C03082BE3
:10029000FAD1414B60221A7002331A78802AFCD1BD
:1002A0003C4B01221A715D225A719A799006FCD555
:1002B0009979384A4906FBD5384B394919600021EC
:1002C000596020231370937903F00C030C2BFAD19F
:1002D000344B354A1A60354A354C136813F4807331
:1002E00003D123604FF4A8531360324B324A1A6093
:1002F00000225A60072243F8042C304AC3F80C2D20
:1003000062B613F0D7F92368DA0705D52C4813F045
:100310003DF92C4B2C4A1A602C4B1B785B0609D5F7
:10032000284C294B22689A4204D1254813F02EF913
:10033000002323601AF038FA13F05AF815F056FB30
:10034000FEE700BF0E20054030800440823F0400DD
:100350000100002B88ED00E0002008E0030000858C
:1003600002D0074000E00740681BFF1F0045020065
:10037000300FFF1F681BFF1F1C9E0020000AFF1F7D
:100380000000000000E400E064E400E008ED00E0AC
:10039000005006400040064001E007404480044011
:1003A0000000060204800440C010070010D0034083
:1003B00014D0034014E000E01FBF02000000202022
:1003C000AE1D9C5F1CE00340A5C3945A00F007409B
:1003D000FFFFFFFFFFFFFFFFFFFFFFFFFFFFFFFF2D
:1003E000FFFFFFFFFFFFFFFFFFFFFFFFFFFFFFFF1D
:1003F000FFFFFFFFFFFFFFFFFFFFFFFFFFFFFFFF0D
:10040000FFFFFFFFFFFFFFFFFFFFFFFFDEF9FFFF23
:1004100010B5054C237833B9044B13B10448AFF33E
:1004200000800123237010BD681BFF1F0000000027
:10043000FC440200084B10B51BB108490848AFF353
:1004400000800848036803B910BD074B002BFBD0A0
:10045000BDE81040184700BF000000006C1BFF1FE4
:10046000FC440200681BFF1F0000000000207047D2
:10047000704700BF101E18DD70B44E1E35460023B5
:1004800015F8014F202C01D0092C0FD101339842CF
:10049000F6D103465C1E0C44014414F8012F06F803
:1004A000012F8C42F9D1C01A70BC7047002BFBDDC4
:1004B0009842EFDA4FF0FF30F6E700BF101E3ADD4A
:1004C00030B44B1E002513F8014F2F2C15D02A2CC9
:1004D00022D0232C0BD100221A70002D284604DDD7
:1004E000014411F8013C03B9013830BC70470A2CB3
:1004F000F1D00D2CEFD034B9EFE7002D03DD13F868
:10050000012C2F2A12D00135A842DCD1014411F868
:10051000013C002BE8D0E8E7002DDCDD13F8012CCE
:100520002F2AD8D1002203F8012CD4E7002203F8A7
:10053000012C1A70D1E70020704700BF0023C0F8DB
:1005400084307047C0F8AC14704700BFD0F8AC04DA
:10055000704700BF032905DC0229B8BF01210161F2
:1005600008467047042101610846704700697047DA
:10057000B5EEC00AF1EE10FAD0ED176A17D4F6EE18
:10058000007A66EEA77AB4EEE70AF1EE10FAD8BF69
:10059000F0EE407A9FED076AC0ED197A86EE267A72
:1005A00067EE277AFCEEE77AC0ED157A7047DFED4B
:1005B000027AEFE70000804F000000000123816015
:1005C00003717047002383600371704703685B6B9E
:1005D000184700BF026880ED0B0AC0ED0C0A80EDE1
:1005E0000D1A536A184700BF00797047D0ED0C7A96
:1005F00090ED0B7A90ED0D6A37EEC77AF6EE006A51
:10060000C7EE067A034677EEA67AFDEEE77A17EE96
:10061000900A013098637047F0B400F5105500F56A
:1006200010770026002206713C353B4600F140045D
:1006300044F8042B03F1400143F8042B8B42FBD117
:10064000BC4245F8046FF3D100F519504FF0FF3369
:100650000360F0BC704700BF2DE9F04100F519566A
:10066000816B3268531C8B420546336023DA00EB02
:10067000820002F10A0342F244429B0100210A2750
:100680000024AF61815003F14002214644642A44B2
:100690002B4443F8041B93424FF00004F9D12B681C
:1006A00028461B6B9847336803F5096305EB830500
:1006B0002C60BDE8F0810368BDE8F0415B6B184732
:1006C00002689FED061AD368DFED050A9FED050A63
:1006D0000021C0F84C186421184700BF6F12033C7A
:1006E0006666663F6F12833A00F63C0080ED000AB2
:1006F000704700BFB5EEC00AF1EE10FA0DDBF7EE61
:10070000007AB4EEE70AF1EE10FA58BFB0EE670ACD
:1007100000F5046080ED000A70479FED030A00F5C4
:10072000046080ED000A704700000000DFED0D7AE4
:10073000B4EEE70AF1EE10FA0DDBF7EE007AB4EE54
:10074000E70AF1EE10FA58BFB0EE670A00F644006F
:1007500080ED000A7047B0EE670A00F6440080EDB5
:10076000000A70476042A20D00F63C0090ED000ABE
:10077000704700BF00F5046090ED000A704700BFAD
:1007800000F6440090ED000A704700BF0246081EC4
:1007900010B408DDFF2807DD4FF48070C2F8480868
:1007A0005DF8044B7047012000F21523C2F8480899
:1007B00002EB8303002402F6544243F8044B9342B5
:1007C000FBD15DF8044B7047D0F84808704700BF74
:1007D00080F83818704700BF90F83808704700BF9D
:1007E00000F5056200231360194600F6544200F636
:1007F000540343F8041B9342FBD17047026810B4C2
:10080000D1F81042C0F83048536C5DF8044BD1F871
:1008100008220431184700BFD0F84838002B70B4C4
:1008200003EB02040DDD00EB830300EB84042833AB
:10083000283400F1280653F8045D44F8045DB342FF
:10084000F9D1002A09DD00EB82032833283051F862
:10085000042B43F8042D8342F9D170BC704700BFCC
:10086000002B7BDD2DE9F04FD0F848C8D0F84C982C
:10087000D0F82868DFED3A5A83B001EB830309F220
:1008800015250CF21524009300F63C030F469646FE
:1008900000EB850500EB840406F5007600F5046B9B
:1008A00000F50568019300F6440ABCF1000FB7ECAF
:1008B000016ADFED2B7A10DD00F654013246C2F3F7
:1008C0000803B1EC017A00EB8303D3ED0A6A8C4292
:1008D00002F1FF32E6EE877AF1D136EE677A9BEDD0
:1008E000004AD8ED004ADAED006A019B67EE077A0C
:1008F00093ED005AE6EE067ABCF1000FE4EE247A9E
:1009000077EEA66AC8ED007A85EE266A26EE076ABB
:1009100011DD00F654033146C1F3080200EB8202F8
:10092000D2ED0A6AD3ED007AE6EE267A0139E3ECDD
:10093000017A9C42F0D1B9F1000F05DD00F65403B5
:10094000E3EC015AAB42FBD1009BAEEC017ABB4217
:1009500006F10106A9D103B0BDE8F08F704700BFD2
:1009600000000000F0B4002AD0F82C78C0F82878F5
:100970000DDD01EB82063C46C4F3080351F8045B2D
:1009800000EB8303B14204F101049D62F4D1094BF1
:100990003A441340002B03DBC0F82C38F0BC7047FE
:1009A000013B6FEAC3536FEAD3530133C0F82C38CD
:1009B000F0BC7047FF01008008300FF015BA00BF8F
:1009C00000B583B002AB012203F8011D08301946BF
:1009D0000FF00AFA03B05DF804FB00BF084614F0FC
:1009E000F9BA00BFF8B518461E460C4615461AF06F
:1009F00027FF002817DDA84215DC2D1A15D0214647
:100A0000671906F1FF3E724646180B4613F8014B74
:100A100012F8015FA54203D19E42F7D10120F8BD33
:100A20000131B942EFD10020F8BD2846F8BD00BF22
:100A300010B5D0ED0B7A90ED0C0A2DED028B80EE07
:100A4000270A044616F0D0F9B0EE408A94ED0D0A5C
:100A500016F0CAF988EE000ABDEC028BF6EE007AB9
:100A600030EE270ABDEEC00A10EE100A0130A06376
:100A700010BD00BFDFED110A10B560EE200AB2EE26
:100A8000040A044616F02CFAF1EEC07AF4EE677A06
:100A9000F1EE10FA0CD194ED1A7ADFED096ABDEE91
:100AA000C77A67EEA67A84ED167AC4ED277A10BD70
:100AB00016F0AAFBF0EE407AEDE700BFCDCCCC3DBE
:100AC000F304B53F08300FF089B900BF10B51431F9
:100AD000044614F08DFE204610BD00BF38B5044614
:100AE0000DF076FE616C054B9942054603D02368F4
:100AF00020461B699847284638BD00BFF1D8FFFF44
:100B00000129C0F88410134601D9042A00DD70477A
:100B10000A46D9B200F19403883015F0BFBA00BF7D
:100B200010B50446D0F8F403034B236010B1102134
:100B300014F068FF204610BD842A020014F07ABA2F
:100B400038B5002105460CF075FD90B10446011D35
:100B50000846D4F8082295ED0B0A15F08FFB2846BD
:100B6000214600220CF040FD2046BDE838400CF044
:100B700017BD38BDC26A82B138B5002104460CF0F9
:100B80004DFD054650B1E06A036829461B6C984745
:100B90002846BDE838400CF003BD704738BD00BFA3
:100BA000002B6ADD2DE9F04F2DED048B87B000EBB3
:100BB0008305039300F50463019300F63C0300935F
:100BC0009FED2E8A00F6440304468946904624355C
:100BD00000F6540600F6544B002700F5056A029310
:100BE00005ABD4F84828B9EC019A3146284615F0EF
:100BF000D3FCDDED058A019B9AED006AD3ED005A26
:100C0000029BD4F8482893ED007A009B79EE688A1D
:100C1000D3ED006A68EEA87A5946E9EE097A2846CB
:100C2000E5EE867A37EE877ACAED007A86EE870A95
:100C300020EE280A15F022FBD4F8483832465946EF
:100C4000304615F055FDD4F84C38002B08DD03F282
:100C5000152304EB83023346A3EC018A9342FBD1B4
:100C6000039BE8EC018A0137BB42A5F10405B7D12B
:100C700007B0BDEC048BBDE8F08F704700000000AA
:100C8000036870B50C4605464968DB6894ED041AA4
:100C9000D4ED030A94ED020A98470022C5F84C28C7
:100CA0002B6821681B6B064A003118BF0121934253
:100CB00002D185F8381870BD2846BDE87040184745
:100CC000D107000010B50446406A074A0368DB6894
:100CD000934207D114F0AEF9A06A0368BDE8104052
:100CE000DB6818479847F7E73D0B0000A0F11C00B0
:100CF000E8E700BF70B50C4B1B78DB0704460D46D8
:100D000006D4A06A036829461B68BDE870401847EE
:100D1000406A064A03681B68934203D1084614F0F0
:100D200059F9EEE79847ECE7909D0020DD090000B7
:100D3000A0F11C00DEE700BF2DE9F843154B1B783E
:100D4000DB0707460D46144612D5DFF84C900E46D9
:100D500001EB0208B0450BD07A6A16F8011B136844
:100D60001B684B45084612D114F034F9B045F3D155
:100D700026464CB10026B86A15F8011B03681B68AB
:100D80009847013C0644F6D13046BDE8F88310464A
:100D90009847DFE7909D0020DD090000A0F11C00CE
:100DA000CAE700BF2DE9F04F2DED0E8B002189B071
:100DB00006460CF033FC002800F03B8107460CF09F
:100DC000A3FB8046002800F03481D7F808520CF0CD
:100DD0009BFB3B1D81460493002800F00381002DFE
:100DE00000F10404D6ED1A6A29DD224603EB8501E1
:100DF000F7EE005A0DE096ED186A35EEC67A8B4292
:100E000067EE277AE6EE267AF0EE676AE2EC016A90
:100E100015D0F3EC017AF5EEC07AF1EE10FAB8BF16
:100E2000F1EE677AF4EEE67AF1EE10FAE3DAD6ED57
:100E3000197A66EEA76A8B42E2EC016AE9D1C6ED47
:100E40001A6A0CF061FB0290002800F0CB800CF0D5
:100E50005BFB029B0390043301930346002800F0E0
:100E6000B480002D40F3ED80039BD6ED26AA9FEDC4
:100E700076AADFED769A9FED769ADFED768A9FED82
:100E8000768A0433A24605939B460024BAEC010AF5
:100E900007A8B0EEC00A15F097FEB0EE697AA0EE92
:100EA0000A7A0134A542F0EE496AE0EE076ADDED08
:100EB000077AB0EE667AF0EE686AE0EE076AF8EE5E
:100EC000E77AB0EE6A7A76EEA77AA7EE887AABEC8C
:100ED000017ADBD1D6ED29BA96ED2A9AD6ED2CCA45
:100EE00096ED277A96ED288A96ED2BCA7BEE897AC5
:100EF000F4EEE7CAF1EE10FA00F1A080F7EE007A06
:100F0000C7EE8CAAB0EE6BDA77EEEA6AB4EEC98A65
:100F1000A6EE89DA7AEEE7AADFED507AF1EE10FA62
:100F2000C8BFB0EE4DBAB4EEE77ACCBFA8EE2ABA8D
:100F3000B0EE6BBAF1EE10FA84BFF7EE007A87EEEE
:100F400087AA7CEECD9A8CBF3AEE67AA9FED44AAA1
:100F5000002D69EE8C9A2EDDDFED428ADDF814A0BB
:100F6000DDF804B00024B2EE04EAF7EE00DA0EE099
:100F700078EE677AB0EE4B0AA7EECA0A013420EE8B
:100F8000280A15F0AFFEA542ABEC010A13D0FAEC2B
:100F9000017AB4EEE78AF1EE10FAE9DCB4EEE79AF2
:100FA000F1EE10FA32DDB4EEEDCAF1EE10FA2DDBFF
:100FB000B0EE6B0AE2E7019B039803EB850353F85D
:100FC000043CC6F8B4300CF0EBFA2B4601990498B7
:100FD00008F1040215F0FEF948460CF0E1FA029817
:100FE0000CF0DEFAD7F81032C8F810323046002282
:100FF00041460CF0F9FA40460CF0D2FA384609B0F6
:10100000BDEC0E8BBDE8F04F0CF0CABAF4EEE79AD7
:10101000F1EE10FA08D537EEE97A87EE0E0A30EED7
:101020002C0A30EE670AA9E7B0EE4D0AAAEEA70A2D
:10103000A4E709B0BDEC0E8BBDE8F08F3CEEEB9A57
:101040005CE70433059345E7A8A19D3FF5CA83C03B
:10105000FBB3C040E09248C0C1A8C0400AD7233CBF
:101060000000C642E3C8EB3D836815491A6880ED6D
:10107000040A92688A421ED1B5EEC00AF1EE10FA57
:10108000D3ED176A19D4F6EE007A66EEA77AB4EEBD
:10109000E70AF1EE10FAD8BFF0EE407A9FED096A48
:1010A000C3ED197A86EE267A67EE277AFCEEE77AA8
:1010B000C3ED157A704718461047DFED037AEDE768
:1010C000710500000000804F000000000368D1F8A7
:1010D0000822F0B45C6C1B4ED1F81032C0F83038E6
:1010E000B44201F104031ED1D0F82C78C0F828785E
:1010F000002A05460EDD194603EB82063846C0F38A
:10110000080351F8044B05EB8303B14200F10100E1
:101110009C62F4D10C4B17443B40002B07DBC5F815
:101120002C38F0BC704719462346F0BC1847013BE9
:101130006FEAC3536FEAD3530133C5F82C38F0BCC0
:10114000704700BF65090000FF01008010B584688A
:10115000164A236880ED050A5B6893421DD1DFEDD6
:10116000147AF0EE400A60EEA70AB2EE040A15F017
:10117000B7FEF1EEC07AF4EE677AF1EE10FA10D114
:1011800094ED1A7ADFED0B6ABDEEC77A67EEA67AA8
:1011900084ED167AC4ED277A10BD2046BDE81040D4
:1011A000184716F031F8F0EE407AE9E7750A0000CA
:1011B000CDCCCC3DF304B53F30B585B005460C49E8
:1011C0000C4C684614F000FB2946684614F0C8FB36
:1011D000094914F0CDFB0146204614F059F9204688
:1011E00014F07CF9684614F0AFFA05B030BD00BFCA
:1011F00008F10100487D002014F10100042A70B4B8
:1012000015461646A8BF042500220346AA4201F14E
:10121000180103F114031BDA51F8184C9C6151F8C2
:10122000144CDC6151F8104C1C6251ED027AF1EE65
:10123000677AC3ED097A51ED017A0132F1EE677AEE
:10124000AA42C3ED0A7A01F1180103F11403E3DBAA
:1012500001460C4A51F82C3B5B68934207D10129A7
:10126000C0F8841001D9042E04DD70BC70473246EA
:1012700070BC18470A4600F19403F1B2883070BC84
:1012800014F00CBF010B000070B501681B4A0C691B
:1012900082B09442CDED010A2BD18269002A03DD90
:1012A000013A826102B070BD00F519520124126842
:1012B000C46300EB820494ED107AA0EE007A00EB98
:1012C000821204F5095604F5115584ED107AD2ED19
:1012D000907AE0EEA07AC2ED907A026932602A68D4
:1012E00001322A60836A9A42DCDBCB6A984702B0FB
:1012F00070BD012201A9A04702B070BD29290000DC
:101300002DE9F0410746C06835490368BC689B6811
:1013100001228B422DED028B84F8FC234BD1D7F8B0
:1013200000E087600271DEF828302E4A93424BD1EC
:10133000002507F5105407F5107600223D713C3466
:10134000334607F1400040F8042B03F1400143F815
:10135000042B8B42FBD1B04244F8045FF3D107F574
:1013600019534FF0FF321A60DEF824301E4A9342C0
:1013700033D1D7ED0B7A97ED0C0A80EE270A15F0E2
:1013800033FDB0EE408A97ED0D0A15F02DFD88EE85
:10139000000AF6EE007A70EE277AFDEEE77A17EE95
:1013A000903A0133BB63BDEC028B3B683846DB6A85
:1013B000BDE8F041184739469847D7F800E0094A98
:1013C000DEF828309342B3D038469847D7F800E08B
:1013D000054ADEF824309342CBD038469847E2E7FE
:1013E000BD05000019060000310A00002DE9F04F8C
:1013F0002DED0E8B002185B007460CF00FF900286B
:1014000000F0F78080460CF07FF88146002800F05D
:10141000F080D8F808520CF077F809F104028346FE
:1014200008F104030092002800F0C480002D40F36E
:10143000E580021DD7ED0BAA9FED72AADFED729A2F
:101440009FED729ADFED728A9FED728A01921E46BD
:1014500092460024B6EC010A03A8B0EEC00A15F0CB
:10146000B3FBF0EE697AE0EE0A7A0134A542F0EEC1
:10147000496AE0EE276A9DED037AF0EE667AF0EEB7
:10148000686AE0EE276AB8EEC77A76EE877AB0EE41
:101490006A7AA7EE887AAAEC017ADBD1D7ED0EBA88
:1014A00097ED0F9AD7ED11CA97ED0C7A97ED0D8A4B
:1014B00097ED10CA7BEE897AF4EEE7CAF1EE10FAE6
:1014C00000F19480F7EE007AC7EE8CAAB0EE6BDAEA
:1014D00077EEEA6AB4EEC98AA6EE89DA7AEEE7AA6E
:1014E000DFED4D7AF1EE10FAC8BFB0EE4DBAB4EEB2
:1014F000E77ACCBFA8EE2ABAB0EE6BBAF1EE10FADA
:1015000084BFF7EE007A87EE87AA7CEECD9A8CBF77
:101510003AEE67AA9FED41AA002D69EE8C9A40DD54
:10152000DFED3F8A019EDDF800A00024B2EE04EA60
:10153000F7EE00DA0EE078EE677AB0EE4B0AA7EE2F
:10154000CA0A013420EE280A15F0CCFBA542AAEC09
:10155000010A26D0F6EC017AB4EEE78AF1EE10FA31
:10156000E9DCB4EEE79AF1EE10FA07DDB4EEEDCA6D
:10157000F1EE10FA02DBB0EE6B0AE2E7F4EEE79A66
:10158000F1EE10FA08D537EEE97A87EE0E0A30EE62
:101590002C0A30EE670AD4E7B0EE4D0AAAEEA70A8D
:1015A000CFE7009B03EB8505584655F8043CBB6428
:1015B0000BF0F6FFD8F80C12D8F80822D8F8103241
:1015C000C9F81032C9F80C123846C9F80822494641
:1015D00000220CF009F848460BF0E2FF404605B047
:1015E000BDEC0E8BBDE8F04F0BF0DABF3CEEEB9A92
:1015F00068E705B0BDEC0E8BBDE8F08F031D0193CD
:101600004CE700BFA8A19D3FF5CA83C0FBB3C04013
:10161000E09248C0C1A8C0400AD7233C0000C6429F
:10162000E3C8EB3D03682DE9F047074608469D698E
:101630000E461AF005F91B4B9D42044627D11A4B62
:101640001B78DB0712D5DFF86490354606EB0008FF
:10165000A8450BD07A6A15F8011B13681B684B4527
:10166000084611D113F0B6FCA845F3D10025ACB162
:10167000B86A16F8011B03681B689847013C0544CB
:10168000F6D12846BDE8F08710469847E0E70246C5
:10169000314638462B46BDE8F04718472046BDE89E
:1016A000F08700BF390D0000909D0020DD0900008B
:1016B0002DE9F0410746C0683D490368BC689B6856
:1016C00001228B4284F8FC2355D1D7F800E08760D3
:1016D0000271DEF82830374A934255D1002507F5CC
:1016E000105407F5107600223D713C34334607F163
:1016F000400040F8042B03F1400143F8042B8B42D7
:10170000FBD1B04244F8045FF3D107F519534FF011
:10171000FF321A60DEF82C30274A93423DD107F59C
:101720001955B96B2A68531C8B422B6039DA07EBC9
:10173000820002F10A030A2142F24442B9619B018C
:1017400000218150002403F14002214644643A44C0
:101750003B4443F8041B93424FF00004F9D1DEF8F8
:101760003030384698472B6803F5096307EB830749
:101770003C60BDE8F08139469847D7F800E00D4A53
:10178000DEF828309342A9D038469847D7F800E0D1
:10179000094ADEF82C309342C1D03846BDE8F0410A
:1017A0001847DEF834303846BDE8F041184700BF2E
:1017B000BD050000190600005906000070B504467A
:1017C00008460D461AF03CF8236802462946204692
:1017D0005B68BDE870401847F8B5002106460BF07D
:1017E0001DFF002855D004460BF08EFE0546F0B1D3
:1017F000D4F81032642B1FD896F83838002B3FD11C
:10180000D4F80832002B0ADD013304EB83002A1DD3
:10181000231D53F8041B42F8041B8342F9D13046C0
:10182000002229460BF0E0FE28460BF0B9FE2046C8
:10183000BDE8F8400BF0B4BED6F83028002ADBD063
:101840009B1A012BD8D913491348FFF7B7FF002380
:101850000A22D4F81012104813F050FE0F490E4817
:10186000FFF7ACFF00230A22D6F830180A4813F01D
:1018700045FE094813F032FE96F83838002BBFD0E9
:101880003268D4F80832D76B211D2A1D3046B8477C
:10189000C5E7F8BD18F101000411FF1F54F1010064
:1018A00010B582B090F880348DF8071023B390F80B
:1018B000A43404461BBB01220DF1070104F590601E
:1018C0000EF092FA94F8A43413B9012002B010BDBE
:1018D0000D490E48FFF772FF11F076FED4F8A814F8
:1018E0000023411A0A22094813F008FE074813F0A2
:1018F000F5FD012002B010BD184602B010BD11F078
:1019000063FEC4F8A804D6E764F101000411FF1FC8
:1019100070B590F8805475B190F8A43415460E4611
:101920000446EBB931462A4604F590600EF05CFAA5
:1019300094F8A4340BB9284670BD0C490C48FFF745
:101940003DFF11F041FED4F8A8140023411A0A22E9
:10195000074813F0D3FD064813F0C0FD284670BDBC
:1019600011F032FEC4F8A804DCE700BF64F1010006
:101970000411FF1F2DE9F04104681B4FE569BD42CA
:1019800015D1034690F8800478B11C4693F8A4342E
:101990000E4615461BBB31462A4604F590600EF0F4
:1019A00023FA94F8A43433B92846BDE8F0812B46D5
:1019B000BDE8F04118470D490D48FFF7FFFE11F053
:1019C00003FED4F8A8140023411A0A22084813F091
:1019D00095FD074813F082FD2846BDE8F08111F01F
:1019E000F3FDC4F8A804D6E71119000064F1010062
:1019F0000411FF1F70B504681B4EE469B4424FEA3E
:101A0000420527D10A4690F8801401B390F8A43417
:101A1000164604461BBB31462A4604F590600EF07C
:101A2000E3F994F8A43483B110491148FFF7C6FED6
:101A300011F0CAFDD4F8A8140023411A0A220C4858
:101A400013F05CFD0A4813F049FD284670BD0D46B1
:101A5000284670BD2A462346BDE87040184711F05D
:101A6000B3FDC4F8A804D6E71119000064F1010021
:101A70000411FF1F70B504681B4EE469B4424FEABD
:101A8000820527D10A4690F8801401B390F8A43457
:101A9000164604461BBB31462A4604F590600EF0FC
:101AA000A3F994F8A43483B110491148FFF786FED6
:101AB00011F08AFDD4F8A8140023411A0A220C4818
:101AC00013F01CFD0A4813F009FD284670BD0D46B1
:101AD000284670BD2A462346BDE87040184711F0DD
:101AE00073FDC4F8A804D6E71119000064F10100E1
:101AF0000411FF1F38B50546FFF760FE044628466F
:101B000013F0ECFC204438BD70B503210C4D0646A3
:101B10000C480CF0A1FE2B689842044604D038B162
:101B200009490A48FFF7E6FF094B2C601E6070BDAB
:101B300008490648FFF7DEFF054B2C601E6070BDAC
:101B4000340FFF1F2C7D00206CF10100487D002028
:101B5000EC970020B8F101002DE9F04F2DED028B3C
:101B60000E46D0F8C41483B005461746984600299F
:101B700000F09280D0F8C834D0F8CC2407FB08FAE3
:101B80009A420AEB030401DD944277DC4FF000092E
:101B9000D5F8D434A3420CDCD5F8C824D5F8CC341D
:101BA000C5F8D82400229342C5F8C82401DD534566
:101BB0006BDBB8F1000F1BDDB7F1FE5F4FEA870B5F
:101BC0009FED428A88BF4FF0FF3BA6F1040A002434
:101BD00002E00134A0450BD05AF8043F002BF8D1A5
:101BE000D5F8DC34D3B30134A045CAF80030F3D1C2
:101BF000002F27DD9FED367A06EB88034FF0000EAD
:101C0000B8F1000F1ADDD5F8C824D5F8C4144FEA8E
:101C10008E0401EB420C304650F8041B2144D1EDF8
:101C2000007A67EE877A9842FDEEE77A17EE901A0F
:101C30002CF8021BF0D14244C5F8C8240EF1010E65
:101C40007745DDD1B9F1000F03D0D5F8C834C5F818
:101C5000CC3403B0BDEC028BBDE8F08F5846019345
:101C600013F0CEFE019B024627B101339F42A2EC46
:101C7000018AFAD1C5F8DC040346B4E715491648D1
:101C8000FFF738FF4FF0010982E712491248FFF7CA
:101C900031FF4FF001098CE7D0F8D0040F4B93FBD4
:101CA000F0F00428B8BF0420C5F8D4044000019126
:101CB00013F0A6FE0199C5F8C40407FB08F4C5F8A3
:101CC000CC14C5F8C8148946A24661E7000000009C
:101CD00000FEFF463CF201000411FF1FF049020024
:101CE000F8B5002104460BF099FC002856D090ED81
:101CF000837AD4ED0B7AB4EE677AF1EE10FA0546EA
:101D00004DD10BF001FC0646002847D0D5F80872EB
:101D1000D4ED107A002F05F1040300F1040228DD50
:101D200003EB8701F7EE005A0DE094ED0E6A75EEB5
:101D3000C66A8B4226EE877AA6EE277AF0EE477ABD
:101D4000E2EC017A15D0B3EC017AB5EEC07AF1EE8F
:101D500010FAB8BFB1EE477AB4EEE77AF1EE10FAB6
:101D6000E3DA94ED0F7A67EE877A8B42E2EC017A40
:101D7000E9D1D5F80C32C4ED107A2046C6F80C3201
:101D80003146C6F8087200220BF02EFC30460BF0EC
:101D900007FC2846BDE8F8400BF002BCF8BD064938
:101DA0000648FFF7A7FE06490448FFF7A3FED5F84B
:101DB0000C32E362A5E700BF78F201000411FF1FB7
:101DC000D0F201002DE9F04F2DED048B064683B0D3
:101DD00008460C466849FFF78DFEB36B002B40F3B5
:101DE000C18006F5105706F509533C3706F1400A45
:101DF000019306F510794FF0000857F8043FBAEC4C
:101E0000017ADFED5E8A07EE903AF8EEE77AF2EEBD
:101E1000049A87EE270A14F0E7FF236858495B68A5
:101E20000522204660EE299A9847019B53F8040B3F
:101E3000019318F0C7F841EC100B0021204613F075
:101E4000A7FB23684F495B6808222046984719EE94
:101E5000900A18F0B7F841EC100B0121204613F05E
:101E600097FBF36B002BB0EE689A3CDD4D464FF0CC
:101E7000000B2DE043495B6808229847D7ED007AB4
:101E8000B5EC017AF8EEE77A0BF1010B87EE278AC1
:101E9000B0EE480A14F0A8FFF2EE047A60EE277A5A
:101EA00017EE900A18F08EF841EC100B0121204635
:101EB00013F06EFBB1EEC80A39EE089AB4EE400A90
:101EC000F1EE10FA53D1F36B5B4578EE808A0ADDB0
:101ED00002222D4923682046BBF1000FCAD02046BC
:101EE0005B689847CAE7B0EE490A14F07DFFF1EE4F
:101EF000699AF2EE047AB0EE698AA0EE278A236826
:101F000020495B6808222046984718EE100A18F00E
:101F100059F841EC100B0221204613F039FBB0EECA
:101F2000680A14F061FFF3EE047AE0EE279A236862
:101F300014495B6808222046984719EE900A18F069
:101F400041F841EC100B0221204613F021FB204602
:101F500013F0C4FAB36B08F10108434509F14009D5
:101F60003FF74BAF03B0BDEC048BBDE8F08FB0EE94
:101F7000480A15F049F9A6E700F301000000000047
:101F800064F301006CF3010078F3010038B50C46EE
:101F9000054606492046FFF7ADFD21462846FFF7D6
:101FA00011FF20460249FFF7A5FD38BD7CF3010073
:101FB000B8F3010038B50C46054606492046FFF740
:101FC00099FD21462846FFF7FDFE20460249FFF70E
:101FD00091FD38BDF0F3010028F401002DE9F04136
:101FE0000C462DED028B0746904608462249FFF726
:101FF00081FDB8F1000F0DD0D7F84838002B05DD72
:10200000B3EE048A0CE0B8F1000F2DD0BDEC028BCA
:10201000BDE8F081D7F84838002B25DDB7EE008AFF
:1020200007F65406002506E013F058FAD7F84838AA
:102030000135AB42E7DDF6EC017A67EE887A17EE00
:10204000900A17F0BFFF41EC100B0421204613F05B
:102050009FFA204602220949B8F1000FE4D1236813
:1020600020465B689847E1E7BDEC028B2046BDE85F
:10207000F04113F033BA00BF60F4010078F30100BF
:1020800070B503685A4E1A692DED028BB24282B0C8
:102090000446B0EE418A0D4640F09C8000F63C02BA
:1020A00082ED000A5A6953498A4240F08D80F5EE6C
:1020B000C00AF1EE10FA7ADBF7EE007AF4EEE70AE6
:1020C000F1EE10FA58BFF0EE670A04F50462C2EDB3
:1020D000000A9A6948498A4270D1DFED487AB4EE25
:1020E000E78AF1EE10FA16DA04F64402C2ED007A3D
:1020F0009B6A434EB3425DD1002D49DDFF2D70DD5B
:102100004FF48073C4F84838B5F5007F0DDC02B099
:10211000BDEC028B70BDF7EE007AB4EEE78AF1EE0B
:1021200010FA48BFF0EE487ADEE736493648FFF746
:10213000E1FC1E21354812F0C9FED4F84818324897
:1021400013F01CFA1C21324812F0C0FE4FF400714B
:102150002D4813F013FA2F492B48FFF7CBFC2368C7
:102160009B6AB3423FD14FF48070C4F848082021E5
:10217000294812F0ABFED4F84818234813F0FEF9B2
:10218000214802B0BDEC028BBDE8704013F0A6B947
:10219000012202F21523C4F8482804EB830304F655
:1021A0005441002243F8042B9942FBD1ACE7DFED08
:1021B0001B0A8AE7294620469847A5E7B0EE480A59
:1021C00020469047236893E7B0EE600A2046904788
:1021D00023687EE7CDED010A90472368DDED010A13
:1021E00060E72A46D5E74FF4007120469847BCE7E0
:1021F000E9060000F50600002D0700006042A20D70
:102200008D070000A4F401000411FF1FD4F40100A5
:10221000F4F401008429020014F50100000000001C
:102220000368164A5B6D934224D170B50646144983
:102230001448FFF75FFCD6F84838002B15DD06F68A
:102240005405002455F8040B17F0BCFE41EC100BAC
:1022500004210C4813F09CF902210B4812F036FEC1
:10226000D6F848380134A342ECDC0648BDE870409B
:1022700013F034B900220349184700BFDD1F0000E6
:1022800060F401000411FF1F78F301000368174A8E
:102290005B6D934228D12DE9F04107460C4620465C
:1022A0001349FFF727FCD7F84838002B17DD07F64E
:1022B0005406002556F8040B17F084FE41EC100B71
:1022C0000421204613F064F923680A495B6802225E
:1022D00020469847D7F848380135AB42EADC20461B
:1022E000BDE8F04113F0FAB800221847DD1F0000E6
:1022F00060F4010078F301000368284A5B6D9342A3
:1023000048D12DE9F0410F462DED028B06462449B8
:102310002448FFF7EFFB7FBBD6F84838002B32DDAF
:10232000B7EE008A06F65405002406E013F0D6F84E
:10233000D6F848380134A34219DDF5EC017A67EE8E
:10234000887A17EE900A17F03DFE41EC100B04213D
:10235000144813F01DF913480221002FE6D112484A
:1023600012F0B4FDD6F848380134A342E5DC57B189
:10237000BDEC028BBDE8F081D6F84838002BF7DDC4
:10238000B3EE048ACEE7BDEC028B0648BDE8F0410F
:1023900013F0A4B80A460349184700BFDD1F000028
:1023A00060F401000411FF1F78F301002DE9F047EC
:1023B00003688C4ADB6993422DED068B074640F09B
:1023C000FB808468884A23689FED880A5B6880EDFB
:1023D000050A934240F0FD80DFED850AB2EE040A63
:1023E00014F07EFDF1EEC07AF4EE677AF1EE10FAA9
:1023F00040F0F28094ED1A7ADFED7E6ABDEEC77A86
:1024000067EEA67A84ED167AC4ED277AF8687A49E1
:102410000368BC68DA6800238A4284F8FC3340F021
:10242000D680836003713B68744A1B6A0121934222
:10243000397140F0C58072497248FFF75BFB724901
:102440007048FFF757FBBB6B002B40F3A88007F1E8
:10245000400A07F5095607F510794FF00008F2EE2B
:10246000049AD6ED807ABAEC017ADFED688AF8EE4C
:10247000E77A043687EE270A14F0B6FC0521644893
:1024800020EE29AA12F022FD56F8040C17F09AFD4E
:1024900041EC100B00215B4813F07AF808215D48ED
:1024A00012F014FD1AEE100A17F08CFD41EC100B1F
:1024B0000121544813F06CF8FB6B002BB0EE689AC6
:1024C00034DD4D46002429E0082112F0FFFCD6ED52
:1024D0007F7AB5EC017AF8EEE77A013487EE278A45
:1024E000B0EE480A14F080FC60EE297A17EE900AEC
:1024F00017F068FD41EC100B0121424813F048F839
:10250000B1EEC80A39EE089AB4EE400AF1EE10FABC
:102510004DD1FB6BA34278EE808A07DD02213D4856
:10252000002CD1D03C4812F0D1FCD0E7B0EE490AE3
:1025300014F05AFCB1EE4AAAB0EE4A8AA0EE298AFB
:102540000821344812F0C2FC18EE100A17F03AFDC8
:1025500041EC100B02212B4813F01AF8B0EE680A78
:1025600014F042FCF3EE047AA0EE27AA08212948D1
:1025700012F0ACFC1AEE100A17F024FD41EC100B1F
:102580000221204813F004F81E4812F0A7FFBB6B8D
:1025900008F10108434509F140093FF762AF1F49BF
:1025A0001848FFF7A7FABDEC068BBDE8F087B0EE40
:1025B000480A14F029FEACE79FED0C0A984725E77E
:1025C000BDEC068B38460F49BDE8F04718479047E9
:1025D00029E72046984719E714F016FEF0EE407AF6
:1025E00008E700BF4D110000750A000000007AC422
:1025F0000000C8C2F304B53FC5050000B51F0000C8
:10260000F0F301000411FF1F00F3010000000000BF
:1026100064F301006CF3010078F3010028F4010079
:102620002DE9F0470368A84ADB6993422DED068B3C
:10263000074640F024818468A44A23689FEDA40AD9
:102640005B6880ED050A934240F03581DFEDA10A19
:10265000B2EE040A14F044FCF1EEC07AF4EE677AAC
:10266000F1EE10FA40F02A8194ED1A7ADFED9A6AC1
:10267000BDEEC77A67EEA67A84ED167AC4ED277AA6
:102680003B68964A9B69934240F00281BB6894493B
:102690001A689FED940A926887ED040A8A4240F016
:1026A0000681D3ED177ADFED906A86EEA77AF6EE13
:1026B000006A67EEA67AF4EEC07AF1EE10FA58BF1F
:1026C000F0EE407A27EE277AC3ED197ABCEEC77A8E
:1026D00083ED157AF868854C0268D1680022A14222
:1026E00083F8FC2340F0E180826002713B68804AFD
:1026F0001B6A01219342397140F0D0807D497E48A8
:10270000FFF7F8F97D497C48FFF7F4F9BB6B002B24
:1027100040F3A88007F1400A07F5095607F510793C
:102720004FF00008F2EE049AD6ED807ABAEC017A06
:10273000DFED738AF8EEE77A043687EE270A14F0A5
:1027400053FB05216F4820EE29AA12F0BFFB56F873
:10275000040C17F037FC41EC100B0021664812F016
:1027600017FF0821684812F0B1FB1AEE100A17F0A3
:1027700029FC41EC100B01215F4812F009FFFB6BB3
:10278000002BB0EE689A34DD4D46002429E0082184
:1027900012F09CFBD6ED7F7AB5EC017AF8EEE77A81
:1027A000013487EE278AB0EE480A14F01DFB60EE74
:1027B000297A17EE900A17F005FC41EC100B012165
:1027C0004D4812F0E5FEB1EEC80A39EE089AB4EEB3
:1027D000400AF1EE10FA4DD1FB6BA34278EE808AED
:1027E00007DD02214848002CD1D0484812F06EFB8A
:1027F000D0E7B0EE490A14F0F7FAB1EE4AAAB0EE0B
:102800004A8AA0EE298A08213F4812F05FFB18EEA1
:10281000100A17F0D7FB41EC100B0221364812F0DA
:10282000B7FEB0EE680A14F0DFFAF3EE047AA0EE19
:1028300027AA0821344812F049FB1AEE100A17F0B3
:10284000C1FB41EC100B02212B4812F0A1FE2A48DB
:1028500012F044FEBB6B08F10108434509F1400941
:102860003FF762AF2A492448FFF744F9BDEC068BD5
:10287000BDE8F087B0EE480A14F0C6FCACE79FED67
:10288000140A98473B68154A9B6993423FF4FEAE91
:102890009FED140A38469847BB681BE7BDEC068BD2
:1028A00038461549BDE8F047184788471EE71846DF
:1028B0009047BB680EE720469847E1E614F0A4FC79
:1028C000F0EE407AD0E600BF4D110000750A00001E
:1028D00000007AC40000C8C2F304B53F69100000CC
:1028E0007105000000007A440000804FC50500001B
:1028F0008D1F00007CF301000411FF1F00F3010095
:102900000000000064F301006CF3010078F30100A3
:10291000B8F3010038B5054612F030FE04462846EB
:1029200012F0DCFD204438BD8369002B02DD013B41
:1029300083617047102A10B5C26330DC00F519536B
:10294000002A1B6800EB8304D4ED107AE0EE007AD5
:10295000C4ED107A11DD02EB03129032093300EB63
:10296000820200EB8313B1EC017AD3ED007AE7EE3B
:10297000077AE3EC017A9342F5D104F50953026931
:102980001A6004F51154236801332360826A93426C
:1029900000DA10BD0368BDE81040DB6A18470F4934
:1029A0000F481446FFF7A6F80E490D48FEF706FF3C
:1029B00021460B4812F0E2FD0B490948FEF7FEFEE6
:1029C0000A490748FEF7FAFE10210548FFF7A2FF63
:1029D00007490348FFF78EF810BD00BF38F5010026
:1029E0000411FF1F78F50100842902008CF5010015
:1029F000A8F50100F8B5D0F8C4E4D0F8C074BEF171
:102A0000000F00F0D780D0F8C824D0F8CC148A4248
:102A10004FEAC703044647DAD0F8D824551A002DE8
:102A200040F38C809D42A8BF1D4603686348DB6964
:102A3000AF42DCBF95FBF7F57D4383420EEB4107C8
:102A40004FEA450640F0908094F8800418B394F85B
:102A5000A434002B40F091803946324604F5906052
:102A60000DF0C2F994F8A43483B155495548FEF7E6
:102A7000A5FE10F0A9FDD4F8A8140023411A0A22DB
:102A8000504812F03BFD4F4812F028FDD4F8CC140A
:102A9000D4F8D82430460D4495420ABF0023C4F828
:102AA000CC54C4F8CC34F8BD561AB7422ADCB34231
:102AB000A8BF334693FBF7F303FB07F727B323685D
:102AC0003E4ADB6993420EEB41054FEA470630D19F
:102AD00094F88034002B35D094F8A434002B64D1C2
:102AE0002946324604F590600DF07EF994F8A4343E
:102AF000002B47D1304628B3D4F8CC341F44C4F857
:102B0000CC74F8BD0020F8BD2F492E48FEF756FEC4
:102B100031462C4812F032FD2C492A48FEF74EFE71
:102B200039462848FFF7F6FED4F8C4E4D4F8CC14AC
:102B3000C5E73246294620469847DCE70020C4F81E
:102B4000CC04F8BD22491F48FEF738FE39461D481F
:102B500012F014FD1D491B48FEF730FE00211948F4
:102B6000FFF7D8FE0020C7E732463946204698478F
:102B7000D4F8CC14D4F8D8248DE710F025FDC4F88F
:102B8000A80469E70E490F48FEF718FE10F01CFD77
:102B9000D4F8A8140023411A0A220A4812F0AEFC05
:102BA000084812F09BFC3046A5E710F00DFDC4F874
:102BB000A80495E74FF0FF30F8BD00BF11190000E1
:102BC00064F101000411FF1FBCF5010078F301005E
:102BD000ECF5010038B5C9B2054612F0D9FC04463F
:102BE000284612F07BFC204438BD00BF10B500F52C
:102BF0001953D3ED000A90ED0D0A2DED028BF8EE7E
:102C0000E00A044690ED0B8A14F06AF928EE008A77
:102C10004821264812F05AF918EE100A17F0D2F996
:102C200041EC100B02212248FFF7D4FF2368214A10
:102C30009B69934228D1A0681F4A036884ED048AE7
:102C40009B68934228D1B5EEC08AF1EE10FAD0ED20
:102C5000176A28D4F6EE007A66EEA77AB4EEE78A11
:102C6000F1EE10FAD8BFF0EE487A9FED146AC0ED8D
:102C7000197A86EE267ABDEC028B67EE277AFCEE97
:102C8000E77AC0ED157A10BDB0EE480ABDEC028BB4
:102C90002046BDE810401847B0EE480ABDEC028B54
:102CA000BDE810401847DFED067ADEE724F60100A4
:102CB0000411FF1F69100000710500000000804F23
:102CC0000000000070B500F51953D3ED007A90EDC7
:102CD0000D7A2DED028BF8EEE77A90ED0B8AA7EED8
:102CE000878A04465321264812F0F0F818EE100A9D
:102CF00017F068F941EC100B02212248FFF76AFF38
:102D00002368214ADB69934225D1A5681F4A2B68B5
:102D100084ED058A5B68934225D1DFED1D0AB2EE92
:102D2000040A68EE200A14F0DBF8F1EEC07AF4EE43
:102D3000677AF1EE10FA1ED1BDEC028B95ED1A7A8E
:102D4000DFED146ABDEEC77A67EEA67A85ED167AD6
:102D5000C5ED277A70BDB0EE480ABDEC028B204667
:102D6000BDE870401847B0EE480ABDEC028B28461B
:102D7000BDE87040184714F047FAF0EE407ADBE700
:102D800070F601000411FF1F4D110000750A0000CC
:102D9000CDCCCC3DF304B53F70B4194B0360002596
:102DA000012600F124042B46467204610572C560B9
:102DB00000E0046944F82350447A01339C42F8DC73
:102DC000104B1C680CB919E01C466369002BFBD141
:102DD000606100230C4C0176026243618380C380F2
:102DE0008372C361046039B11C4600E0026A42F894
:102DF000234001338B42F9D170BC70471860E8E77B
:102E00001CEE0100949D002028EE0100F0B5044660
:102E100000220223C3624E4E84F82020002309685A
:102E2000A66063614FF0FF360A23E660E36327265E
:102E30001F2366636364222621232664E364382605
:102E40004FF4165391B04348A6646366142680235A
:102E5000A665E3662C26152300EB060E3E4F26657D
:102E600023612426029323233C4D2060C4F81CE0F8
:102E70003B48A761A766A6630496236305934FF0BA
:102E80000F0E384B227106274FF4E13684F8542098
:102E9000E5652066CDF80CE0069707938DF82C20A9
:102EA0000191089309930A930C930D950E900F9638
:102EB00007290AD8DFE801F0042610292939101063
:102EC0000222012309928DF82C30204601A90AF034
:102ED00055FC204611B0F0BD232127220A232227CA
:102EE0001F26382521200291039214214FF41652F7
:102EF00005932C2306970796089509900C910F923D
:102F00000A93E2E702230993DFE723270A26222513
:102F10001F20212114224FF416530297059606957F
:102F2000079009910C920F93CFE72A2214230A27C6
:102F300022261F254020212102924FF4165203938E
:102F40000C93059706960795089009910F92BCE798
:102F5000C00FFF1F34EE010000442C470411FF1F77
:102F6000EC10FF1FF1D8FFFFF0B52949294E016091
:102F700000231425284F87604FF0FF3104468DB0A1
:102F8000C160436186610561022117460AF0D6FCE3
:102F9000002020623968214B214FA66402224FF0A5
:102FA000800E03952A2629258142C4F84CE027602B
:102FB00002912071E261A262626401920492236331
:102FC0006363A363E3632364059306930793089302
:102FD00009930A930B936662E56215D00DDB91426B
:102FE0000BDC3427332035210523039605950995FD
:102FF0000B920697079008910A93204601A907F0C3
:1030000035FD20460DB0F0BD039605950B92F4E713
:10301000A02F020000442C47C00FFF1FF1D8FFFF74
:1030200078EE010070B5002300F58C65044680F849
:103030006C3428460EF048F808B9002070BD04F240
:103040003C46256030460CF07FFC012120460DF007
:10305000FFFC70B1214630460CF0DEFC0028ECD0BD
:1030600094F83C3413F0700316BF054B18461E60ED
:1030700070BD014620460DF0EBFC0028EAD1DCE7EC
:10308000989800202DE9F0472DED028B84B0DFF8F1
:103090003CA10F9F109E0546144601F108090FFA46
:1030A00083F842460023214648460CF083FD021E69
:1030B0006DDD2B6821465B68284698472B681B68A6
:1030C00053456BD1002817DD621E964600231EF87B
:1030D000011F202901D0092955D101339842F6D189
:1030E0000346591E214404EB000C11F801EF02F8CD
:1030F00001EF6145F9D1C01A0028D2D047DD23780D
:1031000003947B2B04BF013403940A2E51DDB7EEE8
:10311000008A002F47DD0E9C002513E019F00CFCFF
:1031200051EC100B17F09AFA2060039B1A782C2AA6
:1031300008BF013305F1010508BF0393AF4204F155
:10314000040430D00A2E03A90398E7DC19F0F4FB3D
:1031500053EC102B18EE100ACDE9002316F032FFC5
:10316000DDE9002316F082FF0022174B16F0CCFD9C
:1031700017F02CFA07EE900AB8EEE77AC7EE087A55
:10318000C4ED007AD1E7002BB9DD9842A9DA4FF0FF
:10319000FF3004B0BDEC028BBDE8F087024621464B
:1031A00028469847A8E7002004B0BDEC028BBDE894
:1031B000F08707EE906AB2EE040AF8EEE70A13F021
:1031C0008FFEB0EE408AA4E70000E03F75040000E7
:1031D0002DE9F04F83B0DFF884A10D9FDFF880B1B7
:1031E0000446164601F108090FFA83F8002500236A
:1031F0004246314648460CF0DDFCB0F1000E40F38B
:10320000A08022685368534540F0A080711E0B4691
:10321000002013F801CFBCF12F0F72D0BCF12A0FA0
:1032200066D0BCF1230F50D11D702268002857D002
:10323000331813F8013C002B72D1013813685B4539
:1032400051D1002816DD711E8E4600231EF8012F75
:10325000202A01D0092A70D101338342F6D15A1EA7
:10326000324406EB000C12F801EF01F801EF624561
:10327000F9D1C01A0028BAD063DD337801967B2BD0
:1032800004BF01360196002F1BDD0C9B00241D1F7F
:1032900001A9019819F050FB00222F4B51EC100BA3
:1032A00016F032FD17F092F9019B45F8040F1A78D9
:1032B0002C2A08BF013304F1010408BF0193A7427F
:1032C000E6D1002003B0BDE8F08FBCF10A0FABD00F
:1032D000BCF10D0FA8D0BCF1000F18D10028A7D168
:1032E00013685B4583D00246314620469847C1E7C4
:1032F000002899D013F8012C2F2A95D103F8015CEE
:1033000092E720B113F801CCBCF12F0F10D001309F
:1033100086457FF47EAF331813F8013C002B8CD028
:1033200013685B4590D00246314620469847A1E796
:1033300003F8015C1D70226878E7002B9DD0834262
:103340008DDD4FF0FF3003B0BDE8F08F724631469F
:1033500020469847226871E70000E03FBD04000066
:10336000750400002DE9F04F83B01BB20C9F019350
:103370000446164601F1080800250023019A31464B
:1033800040460CF017FCB0F1000E40F3D7802268E5
:103390006D4953688B4205F1010540F0C880701EED
:1033A00003464FF0000913F8011F2F2900F08F800A
:1033B0002A297FD023295BD100221A702268B9F113
:1033C000000F5DD006EB090313F8013C002B40F021
:1033D000918009F1FF39136896465C4A934254D1B3
:1033E000B9F1000F1ADD701E0146002311F8012FFC
:1033F000202A02D0092A40F0918001334B45F5D1B3
:103400005A1E324406EB090E12F8011F00F8011F84
:103410007245F9D1D4F800E0C3EB0909DEF808A041
:103420004B4B9A453DD1384618F00AFA0028A4DDE6
:103430008145A2DBC0EB090CBCF1000F9DDDB4445B
:10344000B24607F1FF3B5A4600EB0A09534613F810
:10345000011B12F801EF8E4505D19945F7D1284699
:1034600003B0BDE8F08F0AF1010AE245EBD184E731
:103470000A29A1D00D299FD081BBB9F1000FA1D19C
:1034800013689646314A9342C8D04A463146204690
:103490009847D4F800E08146DEF808A02C4B9A4506
:1034A000C1D04A463B4631462046D04700283FF42B
:1034B00064AFD4E7B9F1000F3FF47EAF13F8012CED
:1034C0002F2A7FF479AF002203F8012C74E7B9F1B9
:1034D000000F03D013F8011C2F2919D009F101099D
:1034E000CE457FF460AF06EB090313F8013C002BD7
:1034F0003FF46FAF13689646144A93423FF474AF9B
:103500004A46314620469847D4F800E08146C3E752
:10351000002203F8012C1A70226850E7002B3FF4B8
:103520007DAF4B457FF76CAF4FF0FF3976E77246C2
:10353000314620469847226881464CE74FF0FF30DD
:1035400003B0BDE8F08F00BFBD04000075040000AB
:10355000E50900002DE9F04F83B00C460E9D0D9853
:1035600001909D42B8BF1D46084626499DF830B0DF
:103570001E469146FEF722F9012D38D022492046F9
:10358000FEF71CF9002D19DD06F1804808F1FF381F
:1035900009EB88086F1E4FF0000A5645CCBF59F85A
:1035A0002A10D8F800102046D8BF204611F0E6FFB8
:1035B00057450AF1010A20DCAA45EED113492046FD
:1035C000FEF7FCF8BBF1000F03D011492046FEF7CF
:1035D000F5F810492046FEF7F1F801992046FEF76C
:1035E000EDF8204603B0BDE8F04F11F077BFD9F8F1
:1035F0000010204611F0C2FFE4E707492046FEF71D
:10360000DDF8D9E768F30100C4F60100C8F601004F
:10361000CCF60100D0F6010078F301002DE9F04F5F
:1036200083B00D460E9E0D9801909E42B8BF1E4677
:1036300008462B499DF830B01F461446FEF7BEF8E9
:10364000012E3ED027492846FEF7B8F8002E1FDD90
:1036500007F1804909F1FF3904EB8909A24606F117
:10366000FF380024A742CCBFDAF80000D9F80000E8
:1036700016F0A8FC41EC100B0521284611F088FF3C
:10368000A0450AF1040A04F1010424DCB442E9D1A2
:1036900015492846FEF792F8BBF1000F03D01349F5
:1036A0002846FEF78BF812492846FEF787F801995D
:1036B0002846FEF783F8284603B0BDE8F04F11F026
:1036C0000DBF206816F07EFC41EC100B052128464A
:1036D00011F05EFFE0E707492846FEF76FF8D5E7EF
:1036E00068F30100C4F60100C8F60100CCF6010041
:1036F000D0F6010078F301002DE9F043ADF2DC5D76
:1037000000258046C74AC84BCDF8C8255AA80C46A4
:103710008DF86F518DF8A4558DF8A5558DF818507A
:103720008DF819508DF814500493FFF77BFC002896
:1037300000F0F282BD4B06A81968224601230CF066
:1037400011F9002800F0F382B94B93E8030002AFAF
:1037500087E803000FAC0DF13B0600234FF496728F
:10376000214606A80CF026FA002840F3CE82324605
:10377000002312F8011F2F2900F0F7812A2900F0F9
:10378000E881232940F0CF811570002BE5D0F25C51
:103790000AB9013BE1D02046002210F8011B202984
:1037A00002D0092940F0098201329A42F5D1511E16
:1037B0002144204604EB030C11F801EF00F801EB63
:1037C0008C45F9D19B1A062BC7DD073BC5D004EB0E
:1037D000030EA1460DF10F0C3B464A4612F8010BB1
:1037E00013F8011B884240F0AE816345F6D10025F5
:1037F00000234FF49672214606A80CF0DBF900284E
:1038000040F3E8813246002312F8011F2F2900F00F
:10381000C2812A2900F0B381232940F08C811570E0
:10382000002BE5D0F25C0AB9013BE1D02046002232
:1038300010F8011B202902D0092940F0C58101326E
:103840009A42F5DB9A4200F3C581511E214404EBF4
:10385000030E204611F8017F00F8017B7145F9D174
:103860009342C5D0237801947B2B0CBF0DF13D0012
:10387000204601A908BF019019F05EF800226D4BA7
:1038800051EC100B16F040FA16F0A0FE0025C8F817
:10389000000000234FF49672214606A80CF08AF926
:1038A000002840F397813246002312F8011F2F2988
:1038B00000F0A7812A2900F09881232940F08D810A
:1038C0001570002BE5D0F25C0AB9013BE1D020462F
:1038D000002210F8011B202902D0092940F09F8105
:1038E00001329A42F5DB9A4200F37481511E214461
:1038F00004EB030E204611F8017F00F8017B7145AF
:10390000F9D19342C5D0237801947B2B0CBF0DF1E4
:103910003D00204601A908BF019019F00DF80022D2
:10392000444B51EC100B16F0EFF916F04FFE00254A
:10393000C8F8040000234FF49672214606A80CF044
:1039400039F9002840F346813246002312F8011F5E
:103950002F2900F07C812A2900F06D81232940F075
:1039600062811570002BE5D0F25C0AB9013BE1D011
:103970002046002210F8011B202902D0092940F01E
:10398000748101329A42F5DB9A4200F32381511E81
:10399000214404EB030E204611F8017F00F8017B5F
:1039A0008E45F9D19342C5D0237801947B2B0CBF6F
:1039B0000DF13D00204601A908BF019018F0BCFFA1
:1039C00051EC100B16F04AFE0025C8F80800002341
:1039D0004FF49672214606A80CF0ECF8002840F34C
:1039E000F9803246002312F8011F2F2900F055817B
:1039F0002A2900F04681232940F03B811570002BD5
:103A0000E5D0F25C0AB9013BE1D02046002210F873
:103A1000011B202902D0092940F04D8101329A4230
:103A2000F5DB09E0F039020094EE010098980020DF
:103A3000F8F801000000E03F9A4200F3CB80511EED
:103A4000214404EB030E204611F8017F00F8017BAE
:103A50008E45F9D19342BAD0237801947B2B0CBFC9
:103A60000DF13D00204601A908BF019018F064FF48
:103A700051EC100B16F0F2FD0025C8F80C000023E5
:103A80004FF49672214606A80CF094F8002840F3F3
:103A9000A1803246002312F8011F2F2900F0238154
:103AA0002A2900F01481232940F009811570002B88
:103AB000E5D0F25C0AB9013BE1D02046002210F8C3
:103AC000011B202902D0092940F01B8101329A42B2
:103AD000F5DB9A427EDC511E214404EB030E2046A6
:103AE00011F8017F00F8017B7145F9D19342C6D0EE
:103AF000237801947B2B0CBF0DF13D00204601A9DA
:103B000008BF019018F018FF51EC100B16F0A6FD3D
:103B10000024C8F8100006A80BF016FF20460DF28E
:103B2000DC5DBDE8F0830A293FF42EAE0D293FF499
:103B30002BAEF9B929E60A293FF471AE0D293FF4FD
:103B40006EAE69BB6CE609F10109F1457FF444AE44
:103B500003E6002B3FF418AE12F8011C2F297FF466
:103B600013AE02F8015C15700FE61BB112F8011CD0
:103B70002F291AD0013398427FF4FBAD07E6002BC2
:103B80003FF44DAE12F8011C2F297FF448AE02F825
:103B9000015C157044E61BB112F8011C2F2908D0F6
:103BA000013398427FF430AE3CE602F8015C1570B8
:103BB000EBE502F8015C157032E6002A3FF403AE33
:103BC0009A427FF7F4ADC8E5002A3FF44BAE9A4223
:103BD0007FF73BAE4FF0FF349DE70A293FF470AE0C
:103BE0000D293FF46DAE89B96BE6002B3FF468AE4A
:103BF00012F8011C2F297FF463AE02F8015C1570E6
:103C00005FE61BB112F8011C2F2904D00133984242
:103C10007FF44BAE57E602F8015C157051E6002ABE
:103C20007FF461AE6FE60A293FF49BAE0D293FF4A5
:103C300098AE89B996E6002B3FF493AE12F8011CBA
:103C40002F297FF48EAE02F8015C15708AE61BB155
:103C500012F8011C2F2904D0013398427FF476AE6C
:103C600082E602F8015C15707CE6002A7FF48CAED7
:103C70009AE60A293FF4C2AE0D293FF4BFAE89B9D6
:103C8000BDE6002B3FF4BAAE12F8011C2F297FF4D9
:103C9000B5AE02F8015C1570B1E61BB112F8011C5B
:103CA0002F2904D0013398427FF49DAEA9E602F893
:103CB000015C1570A3E6002A7FF4BEAECCE60A29AB
:103CC0003FF4F4AE0D293FF4F1AE89B9EFE6002BD5
:103CD0003FF4ECAE12F8011C2F297FF4E7AE02F896
:103CE000015C1570E3E61BB112F8011C2F2904D00A
:103CF000013398427FF4CFAEDBE602F8015C157029
:103D0000D5E6002A7FF4E5AEF2E610491048FDF74B
:103D1000F1FE4FF0FF34FEE60E490D48FDF7EAFED6
:103D20004FF0FF3420460DF2DC5DBDE8F0830A4918
:103D30000748FDF743FD21460548FDF7DBFE4FF040
:103D4000FF3420460DF2DC5DBDE8F08340F7010052
:103D50000411FF1FD8F601000CF701002DE9F04116
:103D6000ADF59A6D06466048DFF8B4E1CDF8C004C1
:103D7000002418A80D46174698468DF867408DF820
:103D80009C448DF89D448DF83C408DF83D408DF865
:103D90003840CDF834E0FFF745F9002800F09C806A
:103DA000B8F1000F79D1514B0FA819682A46472363
:103DB0000BF0D8FD9DF83C30002B00F082804C4D7C
:103DC0000FCD04AC0FC42B6823600DA811F086FB47
:103DD00004A817F035FD04A902460FA80CF004F85A
:103DE000012244490FA80BF0FFFF384617F028FDC9
:103DF000394602460FA80BF0F7FF02223E490FA8F2
:103E00000BF0F2FF0DA8012411F068FB06F1140578
:103E10003A4A01922846234632460DA9029400945C
:103E2000FFF798FB364A019223462846321D0DA91A
:103E300002940094FFF78EFB324A019223462846F3
:103E400006F108020DA902940094FFF7E7FB2E4A41
:103E500001922346284606F10C020DA90294009413
:103E6000FFF7DCFB002729490191234606F11002E8
:103E700028460DA902940097FFF7D0FB24490DA80E
:103E8000FDF738FE0DA811F029FB0FA80BF05CFD23
:103E900038460DF59A6DBDE8F08104A80DF29C41FD
:103EA00001232A468DF810408DF811400BF05AFD81
:103EB00000283FF478AF0DF29C4029460BF0D6FE67
:103EC00071E714491448FDF779FC29461248FDF7BB
:103ED00011FE4FF0FF30DCE710490F48FDF70AFEF6
:103EE0004FF0FF30D5E700BFF0390200989800206E
:103EF000ECF8010068F30100F8F70100FCF701009D
:103F000014F8010040F8010074F80100B4F8010051
:103F1000E8F80100C4F701000411FF1F94F7010045
:103F200094EE01002DE9F041764B04460E4693E8ED
:103F30000300EAB004AB04F1F40583E8030006AA29
:103F40000093284631464FF4C873FFF70BFA002858
:103F500040F3D0804FF0630801278DE890014FF4C3
:103F6000C87306AA31462846FFF78CF80028C0F22D
:103F7000A880231D8DE8880106AA4FF4C873314636
:103F80002846FFF77FF80028C0F29B8004F1080361
:103F90008DE8880106AA4FF4C87331462846FFF71A
:103FA00071F80028C0F28D8004F10C038DE88800C0
:103FB00006AA4FF4C87331462846FFF709F90028CE
:103FC0007FDB04F110038DE8880006AA4FF4C87364
:103FD00031462846FFF7FCF8002872DB2369082BDE
:103FE00074DC0193632704F11403009302974FF4E8
:103FF000C87306AA31462846FFF744F8002860DB5C
:104000002269019204F13403009302974FF4C873BC
:1040100006AA31462846FFF735F8002851DB226909
:10402000019204F15403009302974FF4C87306AA57
:1040300031462846FFF726F8002842DB2269019224
:1040400004F17403009302974FF4C87306AA314633
:104050002846FFF717F8002833DB2269019204F1A4
:104060009403009302974FF4C87306AA314628467A
:10407000FFF708F8002824DB2269019204F1B40359
:10408000009302974FF4C87306AA31462846FEF7FC
:10409000F9FF002815DB23690193D434029706AA9F
:1040A0003146284600944FF4C873FEF7EBFF002812
:1040B00007DB15491548FDF71DFD00206AB0BDE876
:1040C000F0814FF0FF306AB0BDE8F08110490F4831
:1040D000FDF774FB21690D4811F050FA08232361A4
:1040E0000C490A48FDF76AFB21690848FEF712FCF3
:1040F000236976E708490548FDF7FCFC4FF0FF30DF
:10410000DCE700BFE4FC0100ACF901000411FF1F73
:1041100054F9010098F9010000F9010030B5ADF241
:10412000A44D1F4B1F4ACDF89034054600230CA820
:104130000C468DF837308DF86C348DF86D348DF871
:104140000C308DF80D308DF808300192FEF76AFFC3
:1041500098B1154B03A81968224601230BF002FC05
:1041600090B101A92846FFF7DDFE044603A80BF035
:10417000EBFB20460DF2A44D30BD0C490C48FDF779
:10418000B9FC4FF0FF30F5E70A490948FDF716FB87
:1041900021460748FDF7AEFC4FF0FF30EAE700BFCD
:1041A000F039020094EE010098980020D0F9010047
:1041B0000411FF1F04FA01002DE9F04106460C46E8
:1041C000084695493569FDF795FC94492046FDF769
:1041D000F5FA306815F0F6FE41EC100B022120468E
:1041E000FEF7F8FC8E492046FDF7E8FA706815F0F6
:1041F000E9FE41EC100B02212046FEF7EBFC894959
:104200002046FDF7DBFAB06815F0DCFE41EC100B40
:1042100002212046FEF7DEFC83492046FDF7CEFA58
:10422000F1682046FEF776FB80492046FDF7C6FA86
:1042300031692046FEF76EFB20467D49FDF7BEFA48
:10424000002D40F3BA8006F11408002758F8040B3B
:1042500015F0B8FE41EC100B0221204611F098F940
:10426000013774492046FDF7A9FABD42EED1204638
:1042700011F034F970492046FDF7A0FA06F1340830
:10428000002758F8040B15F09DFE41EC100B02219D
:10429000204611F07DF9013766492046FDF78EFA78
:1042A000BD42EED1204611F019F964492046FDF7D0
:1042B00085FA06F15408002758F8040B15F082FE21
:1042C00041EC100B0221204611F062F901375949E7
:1042D0002046FDF773FABD42EEDC204611F0FEF8F1
:1042E00057492046FDF76AFA06F17408002758F886
:1042F000040B15F067FE41EC100B0221204611F073
:1043000047F901374B492046FDF758FABD42EEDC2C
:10431000204611F0E3F84B492046FDF74FFA06F12D
:104320009408002758F8040B15F04CFE41EC100BD4
:104330000221204611F02CF901373E492046FDF7B5
:104340003DFABD42EEDC204611F0C8F83E49204659
:10435000FDF734FA06F1B408002758F8040B15F0FD
:1043600031FE41EC100B0221204611F011F901370A
:1043700030492046FDF722FABD42EEDC204611F01E
:10438000ADF832492046FDF719FAD436002756F821
:10439000040B15F017FE41EC100B0221204611F022
:1043A000F7F8013723492046FDF708FABD42EEDC55
:1043B0002046BDE8F04111F091B8204611F08EF88A
:1043C0001D492046FDF7FAF9204611F087F81B49F0
:1043D0002046FDF7F3F9204611F080F818492046F1
:1043E000FDF7ECF9204611F079F816492046FDF763
:1043F000E5F9204611F072F813492046FDF7DEF981
:10440000204611F06BF820461049FDF7D7F92046F9
:10441000BDE8F04111F062B838FA010044FA010039
:104420005CFA010074FA01008CFA0100B0FA010094
:10443000C4FA010078F30100E0FA0100F0FA01008B
:1044400010FB010028FB010034FB01004CFB0100C4
:104450002DE9F041ADF59A6D05468748DFF86CE22D
:10446000CDF8C004002418A80E46174698468DF8CB
:1044700067408DF89C448DF89D448DF83C408DF844
:104480003D408DF83840CDF834E0FEF7CBFD0028F4
:1044900000F0EB80B8F1000F40F0C880774B0FA818
:1044A0001968324647230BF05DFA9DF83C30002B2B
:1044B00000F0D080724E0FCE04AC0FC4336823607E
:1044C0000DA811F00BF804A817F0BAF904A90246D8
:1044D0000FA80BF089FC01226A490FA80BF084FC9D
:1044E000384617F0ADF9394602460FA80BF07CFCB0
:1044F000022265490FA80BF077FC0DA8012405F1F5
:10450000F40610F0EBFF614A029423463046009413
:1045100001920DA92A46FFF781F85D4A02942346CD
:104520000094304601920DA92A1DFFF777F8594AE9
:10453000029423460094304601920DA905F1080229
:10454000FFF76CF8544A02942346009430460192D7
:104550000DA905F10C02FEF7FDFF504A0294234617
:104560000094304601920DA905F11002FEF7F2FF0A
:1045700008274B4A2B690094304601920DA905F19A
:1045800014020297FFF74AF8464A2B690094304616
:1045900001920DA905F134020297FFF73FF8424A54
:1045A0002B690094304601920DA905F1540202973F
:1045B000FFF734F83D4A2B690094304601920DA96B
:1045C00005F174020297FFF729F8394A2B69009424
:1045D000304601920DA905F194020297FFF71EF8EB
:1045E000344A2B690094304601920DA905F1B402BA
:1045F0000297FFF713F800242F492B69019105F169
:10460000D40230460DA902970094FFF707F82B4912
:104610000DA8FDF76FFA0DA810F060FF0FA80BF0C2
:1046200093F920460DF59A6DBDE8F08104A80DF2CE
:104630009C41012332468DF810408DF811400BF05B
:1046400091F900283FF42AAF0DF29C4031460BF05F
:104650000DFB23E71A491B48FDF7B0F8314619480E
:10466000FDF748FA4FF0FF30DCE717491548FDF732
:1046700041FA4FF0FF30D5E7F0390200989800205A
:10468000D8FC010068F30100F8F70100CCFB010041
:10469000DCFB0100ECFB0100F4FB01000CFC010061
:1046A00020FC010034FC010054FC010070FC0100FE
:1046B00084FC0100A4FC0100C0FC0100E8F801003A
:1046C00098FB01000411FF1F64FB010094EE010040
:1046D0002DE9F041544B04460E4693E80700D2B052
:1046E00004AF3B4603C304F12805009728461A701F
:1046F000314607AA4FF49673FEF734FE002840F3C4
:104700008B804FF0630801278DE890014FF496737A
:1047100007AA31462846FEF7B5FC002877DB231DA3
:104720008DE8880107AA4FF4967331462846FEF7B4
:10473000A9FC00286BDB04F108038DE8880107AAB7
:104740004FF4967331462846FEF79CFC00285EDB4A
:1047500004F10C038DE8880107AA4FF496733146E3
:104760002846FEF78FFC002851DB04F110038DE88A
:10477000880107AA4FF4967331462846FEF782FC5B
:10478000002844DB04F114038DE8880107AA4FF4E4
:10479000967331462846FEF775FC002837DB04F196
:1047A00018038DE8880107AA4FF49673314628460E
:1047B000FEF768FC00282ADB04F11C038DE8880161
:1047C00007AA4FF4967331462846FEF75BFC002893
:1047D0001DDB04F120038DE8880107AA4FF49673CE
:1047E00031462846FEF74EFC002810DB0123243416
:1047F00063270193009407AA3146284602974FF495
:104800009673FEF73FFCC01752B0BDE8F0814FF041
:10481000FF3052B0BDE8F08104490548FDF76AF960
:104820004FF0FF30F0E700BF00FE0100ECFC01009C
:104830000411FF1F30B5ADF2A44D1F4B1F4ACDF838
:104840009034054600230CA80C468DF837308DF8BF
:104850006C348DF86D348DF80C308DF80D308DF88A
:1048600008300192FEF7DEFB98B1154B03A81968DA
:10487000224601230BF076F890B101A92846FFF7F4
:1048800027FF044603A80BF05FF820460DF2A44D65
:1048900030BD0C490C48FDF72DF94FF0FF30F5E71E
:1048A0000A490948FCF78AFF21460748FDF722F923
:1048B0004FF0FF30EAE700BFF039020094EE01004C
:1048C0009898002040FD01000411FF1F74FD0100B5
:1048D0002DE9F041ADF59A6D05467D48DFF83CE2E3
:1048E000CDF8C004002418A80E46174698468DF847
:1048F00067408DF89C448DF89D448DF83C408DF8C0
:104900003D408DF83840CDF834E0FEF78BFB0028B1
:1049100000F0D780B8F1000F40F0B4806D4B0FA8C5
:104920001968324647230BF01DF89DF83C30002BE8
:1049300000F0BC80684E0FCE04AC0FC496E80300B4
:1049400044F8040B0DA8217010F0C8FD04A816F05F
:1049500077FF04A902460FA80BF046FA01225F492F
:104960000FA80BF041FA384616F06AFF39460246A6
:104970000FA80BF039FA022259490FA80BF034FAAC
:104980000DA8012405F1280610F0A8FD554A019252
:10499000304623462A460DA902940094FEF73EFEB7
:1049A000514A0192234630462A1D0DA902940094D3
:1049B000FEF734FE4D4A01922346304605F10802C7
:1049C0000DA902940094FEF729FE494A019223465C
:1049D000304605F10C020DA902940094FEF71EFE6C
:1049E000444A01922346304605F110020DA9029473
:1049F0000094FEF713FE404A01922346304605F12B
:104A000014020DA902940094FEF708FE3B4A01929D
:104A10002346304605F118020DA902940094FEF7D2
:104A2000FDFD374A01922346304605F11C020DA9CF
:104A300002940094FEF7F2FD324A0192234630467A
:104A400005F120020DA902940094FEF7E7FD00276E
:104A50002D490191234605F1240230460DA9029407
:104A60000097FEF7DBFD29490DA8FDF743F80DA8D7
:104A700010F034FD0FA80AF067FF38460DF59A6D67
:104A8000BDE8F08104A80DF29C41012332468DF867
:104A900010408DF811400AF065FF00283FF43EAF4A
:104AA0000DF29C4031460BF0E1F837E71849194800
:104AB000FCF784FE31461748FDF71CF84FF0FF3035
:104AC000DCE715491348FDF715F84FF0FF30D5E73F
:104AD000F039020098980020F4FD010068F301000D
:104AE000F8F70100CCFB0100DCFB0100DCFD01005C
:104AF000ECFB010034FC010054FC010070FC0100DF
:104B0000A4FC010084FC0100C0FC0100E8F80100E5
:104B1000A8FD01000411FF1F64FB010094EE0100D9
:104B20002DE9F04100F1B80204460121FEF734F905
:104B30002046224B40F8283B04F150020121FEF7A9
:104B40002BF91F4A1F4D204BDFF894801F4FA262A4
:104B500000261F4AA265236604F194026565C4F825
:104B60005C806766A66604F16C000121FEF714F90B
:104B70004FF07E53174ADFF86CE01749DFF868C042
:104B80001648C4F8AC00C4F8A060C4F8A460C4F827
:104B9000BC506565C4F85C806766C4F86CC0C4F836
:104BA00098E02166C4F8B430C4F89C30A365C4F81A
:104BB000A820C4F8B0202046BDE8F081D8EE01005E
:104BC000C0EE0100A6552C4760377D3FD1F27D3FF6
:104BD0000000A0400000D24265A9723F00002041C1
:104BE000000048420000EE42CCEE010038B500F66D
:104BF000545204460D460121FEF7CEF800210A4B1F
:104C00002360C4F85C1D84F828106185A185E185C6
:104C100004F154004FF4506216F07CF904F6585336
:104C20002A681A60204638BD282B0200F8B590F893
:104C3000B034044600F59065002B4AD00021284688
:104C4000D4F89C64264F0BF025F8264A264B1068B2
:104C5000186004F59760D0ED007A24493868DFF8D1
:104C600090E0D4F8BCC4D4F8B4249860FDEEE77AA0
:104C70000868D86017EE907ADEF8000058624FEAB4
:104C80004C0EB11AB1FBFEF001210CFB00F040000C
:104C90009F618F40DF6100F12407A3F816C05F60B9
:104CA0004FF0100C00271975986219462846A3F892
:104CB00020E083F810C083F822C05F749F74DF7413
:104CC0005F7583F823700BF08FF8314628460AF0A1
:104CD000E1FF28460AF038FE002084F8B004F8BD51
:104CE00014FE01000CFE0100881BFF1F1CFE0100CA
:104CF00024FE010010B590F88034044A0260044696
:104D00000BB1FFF793FF204610BD00BFF0EE01008E
:104D100010B590F88034064A026004460BB1FFF7E4
:104D200085FF20464FF4986110F06CFE204610BDC0
:104D3000F0EE010010B50B4B036004460421D0F8DF
:104D4000DC0410F05FFED4F8C404022110F05AFE17
:104D500094F88034044A226013B12046FFF766FFBE
:104D6000204610BD2CEF0100F0EE010010B50E4BF7
:104D7000036004460421D0F8DC0410F043FED4F8AC
:104D8000C404022110F03EFE94F88034074A2260E9
:104D900013B12046FFF74AFF20464FF49C6110F004
:104DA00031FE204610BD00BF2CEF0100F0EE0100E7
:104DB00038B51A4B0360054603F12C02426207F036
:104DC000EFFEEC6DD4B12368154A5B69934221D1A3
:104DD000144B23600421D4F8DC0410F013FE0221EC
:104DE000D4F8C40410F00EFE94F880340E4A226009
:104DF00063B920464FF49C6110F004FE28460B4B2B
:104E000040F8143B10F0A0FC284638BD2046FFF7C0
:104E10000DFFEEE720469847F0E700BFA02D020007
:104E20006D4D00002CEF0100F0EE010070EF01006D
:104E3000DFED197AB4EEE70AF1EE10FA18DDD0EDE5
:104E4000087A80ED090A20EE270AD0ED077AB8EE3D
:104E5000E77AF6EE006AC0EE077A77EEA67AFDEE04
:104E6000E77A17EE903A012BB8BF012383627047AF
:104E700010B5044609490A48FCF7A0FC606A15F021
:104E8000A1F841EC100B0221054810F081FB054907
:104E90000348FCF793FC10BD6F12833A2CFE01000F
:104EA0000411FF1F80FE0100F0B54D68D1ED007ABE
:104EB000354C364F826007EE105A00F5195E00F54A
:104EC000105600224FF0100CC36004614FF0FF3306
:104ED00047613C3600F1400400F51077F8EEC75A00
:104EE000C0F83CC0027182610021CEF800309446C7
:104EF000C561B646C0ED087A25463B4645F8041B19
:104F000003F1400243F8041B9A42FBD1AF424EF832
:104F100004CF1346F2D1F5EE006A27EEA67AB6EE7C
:104F2000006AC7EE257A00F5195319490160164940
:104F300059601A46DFF854E0C2F808E00F25154919
:104F4000154AC1628563C0ED096A77EE867A002151
:104F5000FDEEE77A026317EE903A012BB8BF01230A
:104F600083620E4B436300253B4644F8041B03F168
:104F7000400243F8041B9A42FBD1A74246F8045F63
:104F80001346F2D1F0BD00BF00007A44000048C2D1
:104F9000D4EF01000000FA4200007A46F304B53F66
:104FA000F8B500F6340204460121FDF7F5FE1F4B6B
:104FB0001F482360C4F830080123002204F63C0097
:104FC00084F83838C4F84C2804F5046304F6440225
:104FD000184F0760184E194D1E606420156000219F
:104FE00004F6E41304F65442C4F8480843F8041BDA
:104FF00093424FF00000F9D104F5056301461860B3
:1050000004F6540343F8041B9342FBD10023C4F875
:105010002838C4F82C38002104F1280304F62802AB
:1050200043F8041B9342FBD12046F8BD14F0010065
:105030003F420F006F12833A6666663F6F12033C71
:10504000CA680B6970B44D680E688C6884604560EE
:10505000C2600361066000F1140301F1140200F163
:10506000340552F8044B43F8044BAB42F9D101F13B
:10507000340200F1540552F8044B43F8044BAB42A0
:10508000F9D101F1540400F1740254F8045B43F8BF
:10509000045B9A42F9D101F1740400F1940354F8CD
:1050A000045B42F8045B9342F9D101F1940200F1F0
:1050B000B40552F8044B43F8044BAB42F9D101F16B
:1050C000B40200F1D40552F8044B43F8044BAB4250
:1050D000F9D1D43100F1F40451F8042B43F8042B36
:1050E0009C42F9D170BC70472DE9F04F2DED028B39
:1050F000ADF53B7D9B4B9FED9C8A9FED9C5ADFED70
:105100009C5A9FED9C6ADFED9C6ADFED9C7A1593BB
:105110009B4B9C4EDFF8A0C2DFF8A0E2DFF8A0B204
:105120009FED997A1D934FF07E54984BCDF834C083
:105130004FF0060AF1EE048A4FF0000889469449C0
:10514000CDF810A0CDF838C0CDF83CC0CDF840C0A7
:10515000CDF844C0CDF848C0CDF858E0CDF85CE0BB
:10516000CDF860E0CDF864E0CDF868E09FED894AC5
:10517000CDED008A8DED018ACDF808B0CDF80C8018
:105180008DED055ACDED065A8DED076ACDED086A15
:10519000CDED097A0A960B960C96139414941B93F2
:1051A0001C931E931F9120914FF07F517A4A7B4FA1
:1051B0008DED257A2791B3EE097A289129912A91CC
:1051C000DFED774A7749DFF8FCC12D972E972F97AF
:1051D0003097319732973397349705462393724827
:1051E00024932B942C948DED264ACDED3E8A8DEDA3
:1051F0003F8ACDF800B18DED217A8DED227A35927E
:1052000036923792389239923A923B923C925B9125
:105210006649CDF87CE1CDF808A15C91644F654901
:105220003D90CDF804818DED435ACDED445A8DED7E
:10523000456ACDED466ACDED477A489649964A963D
:105240004B944C944D944E944F945094519452944A
:1052500053935493559356935793589359935A9302
:105260006193CDED604ADFF860E1CDF874C1B9F12A
:10527000010FCDF800A2DFF854A1CDF878C16293F8
:1052800063946494659466946794689469946A944A
:1052900073927492759276927792789279927A92CA
:1052A0007B90CDED7C8A8DED7D8ACDF8F8B1CDF87F
:1052B000FC818DED815ACDED825A6B916C916D918F
:1052C0006E916F917091719172918DED836ACDEDB8
:1052D000846A8DED9A7ACDED857A86968796889642
:1052E00089948A948B948C948D948E948F949094BA
:1052F0009193929393939493CDF874C295939693CC
:10530000979398939F93A093A194A294A3949B970F
:105310009C97CDF878A2CDF864E2A494B990A991B5
:10532000AA91AB91AC91AD91AE91AF91B091B19288
:10533000B292B392B492B592B692B792B892A59443
:10534000A694A794A89400F0BA80B9F1020F72D085
:10535000B9F1000F3CD00DF53B7DBDEC028BBDE8F3
:10536000F08F00BF00004842000096430000FA435F
:10537000000052440080B14400401C4500409C4560
:105380000000E04000401C46CDCC8C3F0000204196
:105390000000A0419A99993F00000C4300005C4234
:1053A000000040420000D841ACEE01000000F04196
:1053B00000000C420000A0423333333F000034426F
:1053C00000000243000020420000B04100002C42D7
:1053D000694605F5B270FFF733FE524FDFF854C14E
:1053E000DFF854E1504E51485149C5ED978A0023EA
:1053F000642285ED988AC5F868B2C5F86C42C5F894
:105400007C42C5F88892C5F864C2C5F87032C5F808
:105410007432C5F878E2C5F88072C5F89062C5F8B4
:105420009402C5F89812C5F88C220DF53B7DBDECB1
:10543000028BBDE8F08F7CA905F57770FFF700FEC1
:1054400005F2D442C2ED008A05F59B6282ED008A26
:1054500005F59C6E05F2DC4236481060CEF800B0CF
:1054600005F2E44E0023CEF8004005F59D6E324F64
:10547000CEF8003005F2EC4E2A49CEF8003005F5A2
:105480009E63294E1F6005F2F44705F59F633C605B
:1054900026481960264AC5F8008505F5A16405F27D
:1054A0000C5105F5A2636427C5F8047526600860F1
:1054B0001A600DF53B7DBDEC028BBDE8F08F3EA977
:1054C00005F52870FFF7BCFD164FDFF868C0DFF860
:1054D00068E0154E15481649C5EDE68A002364229A
:1054E00085EDE78AC5F8A4B3C5F8A843C5F8B84365
:1054F000C5F8C483C5F8A0C3C5F8AC33C5F8B0334C
:10550000C5F8B4E3C5F8BC73C5F8CC63C5F8D003DF
:10551000C5F8D413C5F8C8230DF53B7DBDEC028B4F
:10552000BDE8F08F0000DC426F12833A6666663F8A
:105530006F12033C0044AC46000048432DE9F041A3
:105540001D4B884693E8070084B001AB03C3464671
:10555000082EA8BF08261A70184919480122FBF71F
:105560001DFC002E17DD08F1FF370DF103050024A7
:1055700001E0B4420FD015F8011F1148FBF7D8FB2A
:10558000BC4204F10104F4DA01220E490C48FBF795
:1055900005FCB442EFD12B220B490948FBF7FEFB77
:1055A000414607480FF0EAFF052208490448FBF787
:1055B000F5FB04B0BDE8F081C4FE010068F3010012
:1055C000487D0020CCF6010090FE0100BCFE0100E9
:1055D0002DE9F0411D4B884693E8070084B001ABEC
:1055E00003C34646082EA8BF08261A701849194852
:1055F0000122FBF7D3FB002E17DD08F1FF370DF179
:105600000305002401E0B4420FD015F8011F114832
:10561000FBF78EFBBC4204F10104F4DA01220E49CF
:105620000C48FBF7BBFBB442EFD12B220B490948D6
:10563000FBF7B4FB414607480FF0A0FF05220849DD
:105640000448FBF7ABFB04B0BDE8F081FCFE0100B1
:1056500068F30100487D0020CCF60100D0FE010077
:10566000BCFE010010B5044688480FF037FF88499A
:105670008648FCF73FFA87498448FCF73BFA86499D
:105680008248FCF737FA85498048FCF733FA8449A9
:105690007E48FCF72FFA83497C48FCF72BFA8249B5
:1056A0007A48FCF78BF8206914F08CFC41EC100B65
:1056B000022176480FF06CFF7C497448FCF71AFA17
:1056C0007B497248FCF77AF87A4B704819690FF0F9
:1056D00055FF79496D48FCF70DFA78496B48FCF79E
:1056E00009FA77496948FCF705FA76496748FCF7F3
:1056F00001FA75496548FCF7FDF974496348FCF700
:10570000F9F973496148FCF759F8206814F05AFC1C
:1057100041EC100B02215D480FF03AFF63495B48F2
:10572000FCF7E8F96B495948FCF7E4F96A4957482E
:10573000FCF7E0F961692046FFF700FF206814F0EC
:1057400041FC41EC100B022150480FF021FF57495A
:105750004E48FCF7CFF961692046FFF739FF206812
:1057600014F030FC41EC100B022148480FF010FF00
:105770004E494648FCF7BEF958494448FCF7BAF987
:1057800057494248FCF7B6F956494048FCF716F825
:105790003E480FF0A3FE54493C48FCF70FF8D4F8FC
:1057A0003004524A0368DB69934262D100F63C0040
:1057B000006814F007FC41EC100B062133480FF091
:1057C000E7FE4B493148FCF795F94A492F48FBF76A
:1057D000F5FFD4F83004484A03681B6A934250D15D
:1057E00000F50460006814F0EDFB41EC100B06219D
:1057F00026480FF0CDFE3E492448FCF77BF93F498F
:105800002248FBF7DBFFD4F830043D4A03685B6AAB
:10581000934232D100F64400006814F0D3FB41EC0F
:10582000100B062119480FF0B3FE31491748FCF759
:1058300061F934491548FBF7C1FFD4F830341348F7
:10584000D3F84C180FF09AFE29491048FCF752F98A
:105850002D490E48FCF74EF92C490C48FCF74AF943
:105860002B490A48FCF746F90848BDE810400FF0FC
:1058700035BE984710EE100A9BE7984710EE100AC5
:10588000CBE7984710EE100AADE700BF487D002037
:1058900008FF010030FF010044FF010070FF01001C
:1058A000A0FF0100ECFF01003800020060000200D0
:1058B000640002002046002084290200A4000200A7
:1058C000E80002003C01020090010200D401020045
:1058D000140202005802020078020200A402020030
:1058E000D40202001C0302005403020069070000F6
:1058F000840302008803020075070000B803020059
:1059000081070000E803020024040200540402009E
:105910008404020000B5ADF6B45D40F6AF526846AF
:1059200005490DF00DFB69460448FCF7E3F80DF658
:10593000B45D5DF804FB00BFB0040200487D0020A8
:1059400070B57A480C467A49FBF738FF082177484A
:105950000FF014FE77497548FBF730FF206814F00C
:1059600031FB41EC100B042170480FF011FE72491D
:105970006E48FBF723FF606814F024FB41EC100B2A
:1059800004216A480FF004FE6B496848FBF716FFD4
:10599000A06814F017FB41EC100B042163480FF0D2
:1059A000F7FD65496148FBF709FFE1685F480FF0C3
:1059B000E5FD61495D48FBF701FF21695B480FF098
:1059C000DDFD5D495948FBF7F9FE2369002B40F3E3
:1059D000A78004F11406002556F8040B14F0F2FA1F
:1059E00041EC100B042151480FF0D2FD0122524925
:1059F0004E48FBF7D3F923690135AB42ECDC002BB1
:105A000040F38E8004F13406002556F8040B14F0A0
:105A1000D9FA41EC100B042144480FF0B9FD0122E2
:105A200045494248FBF7BAF923690135AB42ECDC42
:105A3000002B75DD04F15406002556F8040B14F014
:105A4000C1FA41EC100B042138480FF0A1FD0122EE
:105A500039493648FBF7A2F923690135AB42ECDC42
:105A6000002B5DDD04F17406002556F8040B14F0DC
:105A7000A9FA41EC100B04212C480FF089FD0122FA
:105A80002D492A48FBF78AF923690135AB42ECDC42
:105A9000002B45DD04F1B406002556F8040B14F084
:105AA00091FA41EC100B042120480FF071FD012206
:105AB00021491E48FBF772F923690135AB42ECDC42
:105AC000002B2DDD04F19406002556F8040B14F08C
:105AD00079FA41EC100B042114480FF059FD012212
